:020000040000FA
:100000000040002099990100D5990100D79901007D
:1000100000000000000000000000000000000000E0
:10002000000000000000000000000000D99901005D
:100030000000000000000000DB990100DD990100D4
:10004000DF9901005D320000DDA00100DF990100B1
:10005000DF99010000000000999A0100DF9901007A
:10006000894601003DA60100519F0100DF99010072
:10007000DF990100DF990100DF990100DF9901009C
:10008000DF990100DF990100DF990100DF9901008C
:10009000DF9901009195010051960100C5470100CB
:1000A000D5470100DF9901000000000000000000BA
:1000B0000000000000000000000000000000000040
:1000C00010B5064C2378002B07D1054B002B02D02E
:1000D000044800E000BF0123237010BD2001002070
:1000E00000000000CC900300044B10B5002B03D09F
:1000F0000349044800E000BF10BDC04600000000F6
:1001000024010020CC900300164B002B00D1144B8F
:100110009D46402292029A1A924600218B460F4633
:100120001348144A121A29F052FA0F4B002B00D030
:1001300098470E4B002B00D0984700200021040068
:100140000D000D48002802D00C4800E000BF20F050
:10015000B1FF2000290028F0D3FF20F0C9FEC046DF
:100160000000080000400020000000000000000027
:1001700018010020F42F0020000000000000000003
:1001800010B5040001F0F4FC074B02001B6907499D
:10019000074822F01AFF13F091FD012C01D113F052
:1001A000AFFD044810BDC046842E00208604030025
:1001B00034B7020024DD020010B50CF003FC04F09B
:1001C0008BF9014810BDC04624DD020010B513F0C4
:1001D00077FA014810BDC04624DD020010B513F0C7
:1001E00065FA014810BDC04624DD020010B586B096
:1001F000040005AB04AA03A902A815F0E5FA059BC3
:10020000029A0193049B064900930648039B22F03F
:10021000DCFE012C01D115F013FB034806B010BD24
:100220009B04030034B7020024DD020010B5084C23
:10023000002805D1A834236801305B00184310BDA5
:1002400008680CF0BFFBA83420600248F7E7C046FE
:10025000842E002024DD020010B50CF019FC0449A6
:100260001BF060F91AF026FD27F0F3F9014810BDE4
:1002700000007A4424DD020010B50CF0A3FB002836
:1002800001DD27F0E6F9014810BDC04624DD02007B
:1002900010B5040008000CF095FB64102418034806
:1002A000640004400120204310BDC046FEFFFF7FD4
:1002B00010B50CF087FB002801DD27F0C6F90148D6
:1002C00010BDC04624DD020010B527F0DAF9034B5B
:1002D000400018400123184310BDC046FEFFFF7FB9
:1002E00010B527F0CAF9034B40001840012318430A
:1002F00010BDC046FEFFFF7FA3230021024A5B0022
:100300000248D1527047C046842E002024DD0200EE
:10031000A3230121024A5B000248D1527047C04624
:10032000842E002024DD0200A323044A5B00D35A5C
:100330000348002B00D103487047C046842E00209C
:10034000B4AD0200ACAD020010B512F027FD0148BB
:1003500010BDC04624DD020010B50C4C002808D1A9
:10036000FC34236D18005A1C02D0180122F086FBC1
:1003700010BD08680CF026FBFC34031E044803DAA9
:1003800001235B422365F3E71B09FBE7842E002072
:1003900024DD0200F0B505008BB008680C0009F000
:1003A000DFF9059005A821F0ACFC00270126059B8C
:1003B00003900793079B197800291BD1380012F08E
:1003C00099FB0122009007A960680CF0B5FC079B1F
:1003D000089A06939B1801920293022D20D9A068D7
:1003E0000CF0F0FA002818DA089BC01815D52A4836
:1003F00000F048FF080014F0A3FE002805D13000EB
:10040000079B3F1801330793D4E707A821F08BFC23
:10041000079B1B78732BF3D1F1E7069B1818069006
:100420000025BD4202D300980BB0F0BD059B01260C
:10043000187814F085FE002803D005A821F073FC7D
:1004400006000698029A83199A42D0D3059BAC1CE9
:100450001B78732B0AD0009BA4001C190196019AEB
:10046000059B511E01910FD2AD1909E0310008F032
:1004700051FD069BA4009E19009B06960135E05095
:10048000059B01330593CCE7197806AA03980AF077
:1004900011FE01C4E3E7C046E3040300F0B58BB0EE
:1004A00005910292039309F05BF9069006A821F0EA
:1004B00028FC002401270490039B9C4201D30BB02D
:1004C000F0BD069B18780028F9D014F039FE3D00E5
:1004D000002803D006A821F026FC0500059B029AFF
:1004E0005B199A4202D21B4800F0CCFE069BA60084
:1004F0001B78732B09D0109B01959E19019A069BBE
:10050000511E01911ED2641918E0109B3A009859AF
:1005100007A90CF011FC089E0134AE4200D92E0050
:1005200007993200059829F036F8059BAA1B9819FF
:10053000002129F04CF8059B5D190595069B0133B8
:100540000693B9E7197804CE05AB04980AF012FEB9
:10055000D4E7C046E3040300F0B50E0089B0039071
:1005600001CE0F0021F0F3FB4410210004A826F077
:100570005CFF069D22000021280029F028F8039B3B
:100580002A19013B290038680096FFF787FF04A964
:10059000024808F071FC09B0F0BDC04620B9020065
:1005A00030B50C0089B005000222606805A90CF086
:1005B000C3FBA0680CF006FA002806DA069B03933A
:1005C000C01802D5084800F05DFE0599069AEB1E9A
:1005D0008A18091820000C3000902068FFF75EFF91
:1005E000024809B030BDC046E304030024DD020028
:1005F00070B515F03FF80F4C0F4B0025A3620F4B61
:10060000E562636323000321A8330D481D60A564E0
:1006100025630FF0F1FF0B4E012130000FF0ECFFCE
:100620003000094A094924F052FD26606660E565FC
:1006300070BDC046842E0020C4A3020064D1020015
:10064000BC2E0020D02E0020760F0000860F000068
:1006500070B50624134EC3001C43736800220500C6
:100660002100181D16F0A4F8021E18D1F06D002804
:1006700007D00430210016F09BF8002801D0406814
:1006800070BD00222100084816F092F8021E06D123
:100690002A000649064801F0C3FF06F001FF506832
:1006A000EEE7C046842E0020B0F002001B060300D7
:1006B00078A402000A4B10B5040018685B689842E1
:1006C0000AD00621E30019430430002216F070F826
:1006D000002801D0406810BD2000FFF7B9FFFAE7FD
:1006E000842E0020074B10B5D86D002801D1064894
:1006F00010BD04300022054916F05AF80028F6D043
:100700004068F5E7842E002078EF0200DE0E00003E
:100710000A00C100062010B5024B0143186824F0FE
:10072000D6FC10BD842E0020062110B5034BC0005E
:100730000143186824F0D5FC10BDC046842E00206B
:100740000A00C100062010B5024B0143586824F08E
:10075000BEFC10BD842E0020062110B5034BC00046
:100760000143586824F0BDFC10BDC046842E002013
:1007700037B505000C00062806D108000CF060FA19
:1007800000280DD02C483EBDCB071BD54B100428AC
:1007900016D81AF06DF803154E4E0700002BF1D055
:1007A0002648F0E7C0221206934204D18020C005FB
:1007B00022F064F9E7E75B425B0001201843E2E7BF
:1007C000DB43F9E702281AD11D4B0B40062B08D05A
:1007D0008B0714D10A681B4B92699A420FD1486863
:1007E00002E0C80826F000FF002806D101A9200079
:1007F00008F0B2FB019914F02BFF4300DDE7200065
:100800000BF0FCFF4369002B0DD10F4BAD00200016
:10081000ED5823F07AFA2A0003000C490C4801F045
:10082000FFFE06F03DFE2100280098470028AAD1CF
:10083000EBE70800A7E7C046ACAD0200B4AD02008C
:10084000070080FF199D0000F4B80200A70603000E
:1008500058A60200F7B50400019116001F000BF026
:10086000CDFF0569002D09D1200023F04EFA06497D
:100870000200064801F0D4FE06F012FE3B003200F2
:1008800001992000A847FEBDAE05030058A602004E
:10089000F8B50E0015001C00930714D113681E4A0A
:1008A000934202D16B682360F8BD1C4A934207D182
:1008B000002802D00BF0A2FF06006B6848C4F3E7E3
:1008C000174A934201D12560EEE75A6802211700CA
:1008D0008F4314498F4202D013498A42F3D1002832
:1008E00017D1124A93420BD0114A934208D0114AB1
:1008F000934205D0104A934202D0104A934208D145
:100900000C2021F050FB0E4B466003608560206098
:10091000CAE725606060C7E740B8020004B802007B
:10092000B8B80200450200001A020000D0DF020041
:100930000CE0020048E0020084E00200C0E0020097
:100940006C9A0200F8B500231360536006000D0096
:1009500014000BF053FFF92307005B009D4205D103
:10096000836A002B02D00F4B48C4F8BDFB69002BF3
:1009700004D02200290030009847F6E7B86B002821
:10098000F3D00621ED00294304301A0015F010FFC2
:100990000028EAD04268230039003000FFF778FFD2
:1009A000E3E7C04640F0020070B5160004000D00F9
:1009B000FFF7C8FF3368002B15D10B4EA3070BD1EF
:1009C0000A4B22689A4207D12B006268084930001E
:1009D00001F026FE06F064FD200023F096F92B00BE
:1009E00002000449F3E770BDA8A10200B8B80200F4
:1009F000340603005B06030073B504000D00160007
:100A00000BF0FCFEC369002B09D004220196009272
:100A100029006A4620009847009B002B0AD020003E
:100A200023F073F92B0002000349044801F0F8FD9C
:100A300006F036FD73BDC0465B060300A8A10200A8
:100A400073B504000D000BF0D9FE174B426A060087
:100A50009A4226D0002D03D1102021F0A4FA0500DF
:100A6000736A002B12D1E6216A46FF312000FFF79E
:100A700069FF009B002B0FD1200023F046F90B49A2
:100A800002000B4801F0CCFD06F00AFD2900200011
:100A900098470028E7D076BD2900684612F068FD27
:100AA000F9E72000F7E7C046373D0200CA0503001A
:100AB00058A6020037B504000BF0A0FE856A002D91
:100AC00002D02000A8473EBDF9216A464900200017
:100AD000FFF738FF009B002B05D06A46290028004D
:100AE00021F074F9EFE7200023F00FF90349020029
:100AF000034801F095FD06F0D3FCC046FC05030059
:100B000058A6020030B505008FB001F04BF8280060
:100B10000BF074FE846A002C05D02800A047040066
:100B200020000FB030BDF9216A4649002800FFF7C8
:100B300009FF009B002B16D002A806F08BFC0028B2
:100B400007D16A46010021F041F9040006F0A0FC3B
:100B5000E6E7039B0849186808F052F80028DFD13F
:100B6000039806F09DFC280023F0CFF8034902000B
:100B7000034801F055FDF4E7A4A50200FC050300BD
:100B800058A60200F0B513688FB00793002800D074
:100B90006FE00400131D0493FF220B00090A1340A9
:100BA000114002934B000693069A029B05919B18F5
:100BB000049A9B00D558D3185F68381E09D00020CE
:100BC000BB0706D1924B3A689A4202D1380024F012
:100BD0007BFA059B18184600002D4FD1029B25007B
:100BE000581C83199800019321F0DDF90600002CB0
:100BF00001D001250460029BA8009A0030180499D6
:100C000028F0C9FC029B5B190393039B9800059B8A
:100C10003018DA00029B9900049B591828F0BBFC9D
:100C2000039A069B944663441D00002F12D00324B0
:100C30003C4000D0AAE0764B3A689A4200D0A5E04A
:100C4000380024F059FA0323070001937B689C4283
:100C500000D27DE0039B0399EA1A520833000798FB
:100C6000FFF7F8FD0400300021F0CCF920000FB0B0
:100C7000F0BD13000833049354688DE7AB072ED101
:100C80002B68644A934202D0634A934227D12800DA
:100C90000AAA09A90BF03AFF099B2500581C029BE0
:100CA000C01883199800019321F07DF90600002CEB
:100CB00001D001250460029BA8009A000499301815
:100CC00028F069FC029B0A995819099B80009A0038
:100CD000301828F060FC029B099A9B1893E7029B4E
:100CE000181D83199800019321F05DF90394060003
:100CF000002C02D0012304600393039B0499980005
:100D0000029B30189A0028F046FC029A039B9446F6
:100D1000280063440AA90393FFF792FE0500280008
:100D2000FFF7F0FE041E00D16FE7019B039A934288
:100D300007D8D900300021F054F90600019B5B0070
:100D40000193039B9B009C51039B01330393E6E7B4
:100D5000E3000293BB68E2009858002814D00428EE
:100D600012D0019B184205D12C4B02689A4201D146
:100D700022F0C3FBAB00F050B968E2008C4662443D
:100D80005268F31802355A6001345FE70AAA244911
:100D90003800FFF709FE00210AAA080021F016F822
:100DA0000021FFF74DFE02900298FFF7ABFE041EF4
:100DB00000D14FE7019A6B1C9A420BD85300019364
:100DC000042B01D204230193019B3000990021F0F0
:100DD00008F9060003231C4207D1104B22689A42EF
:100DE00003D1200022F089FB0400E6210AAAFF318A
:100DF0003800FFF7D9FD0AAA002101200C9420F049
:100E0000E5FFAB00F450F31802355860CCE7C0465C
:100E100098CC02006CD10200FCC1020040BB020071
:100E20006B02000070B50C0086B0150083071AD164
:100E300003681F4A934202D01E4A934213D102AA6A
:100E400001A90BF063FE019BA3422AD319D8029B90
:100E5000A4001C19221FA34201D106B070BD116865
:100E6000140002C5F6E702A9FFF7EAFD0023060019
:100E70000193019B3000A34206D3FFF743FE0028F5
:100E8000EBD022000C490EE0FFF73CFE002808D012
:100E9000019A0A49A31A5B189B000132585101922A
:100EA000E7E7019A0649074801F0BAFB06F0F8FAAD
:100EB0006CD10200FCC10200E8060300FFFFFF3F07
:100EC000C5060300D0A60200F7B5FF260D00090AEB
:100ED000354014000E4083072BD10368354A9342F6
:100EE00002D0354A934224D101AA69460BF00EFE86
:100EF0000098AB19834255D801998300B200CB18F2
:100F0000A218043B94420DD1AF00401BC919801BAD
:100F100022F08EFC019B2060DF193A1F0434BB4293
:100F200003D1F7BD1F6880C4EBE71168170021608B
:100F3000F3E70021FFF784FD002307000093009BE7
:100F4000AB4219D30021080022F072FC05003800E2
:100F5000FFF7D8FD011E1CD1AB68B34222D3B2000B
:100F6000A418991B25608A009B00043C9A4214D166
:100F7000280022F079FCD4E73800FFF7C3FD0028F1
:100F800010D0009AAB1A9B199B00013218510092A5
:100F9000D5E728000AF09AFBD9E7E86880580432C0
:100FA0002060E2E7009A0549054801F039FB06F0A8
:100FB00077FAC0466CD10200FCC10200C5060300EE
:100FC000D0A60200F0B591B01D0006000C0017007D
:100FD0000BF014FC334B984207D12B003A00210050
:100FE000300003F08FFD11B0F0BD826A2E4B002A55
:100FF00008D09C4230D13000904728600028F2D0C1
:101000000120F0E79C4227D1F92101AA49003000D4
:10101000FFF798FC019B002B0DD1D72101AA4900B5
:101020003000FFF7C1FC039401AA0021012020F049
:10103000CDFE2860E4E704A806F00CFA002807D1EA
:1010400001AA010020F0C2FE286006F021FAD7E7CD
:10105000059B2B600220C6E7002CDED138000BF088
:10106000CDFB124907F0CCFD01AA00280ED0104993
:101070003000FFF767FC019B002B10D001AA210074
:10108000200020F0A3FE28602000ACE709493000D2
:10109000FFF758FC019B002B01D00397C4E72F609A
:1010A000D8E7C04650AC020024DD020098A202003E
:1010B00019020000CD02000010B5040001F0F6FA9C
:1010C000002808D0002320001A001900FFF7C2FBF7
:1010D0000400200010BD200020F0AFFF0028F8D150
:1010E0000249034820F0A5FFF2E7C0467D06030051
:1010F00058A602007FB5C30006201843054B019097
:101100000491052001A902930393059206F00EFABB
:1011100007B000BD24DD02001423F0B58DB000AF90
:10112000FA1805000C00FFF70DFCBB69002B06D078
:1011300022002C492C4801F073FA06F0B1F97869C5
:1011400000284CD1280021F046FE0028F0D01423BE
:10115000F821FA1828004900FFF7F4FB10227869FB
:10116000B91808F013FBB860200026F042FA6A466E
:101170003E69B968731C7B60C318FB600733DB08EA
:10118000DB00D31A9D466D463200280028F003FA92
:101190002E23AB557B682000EB18BB6026F02EFA9F
:1011A0000600200026F025FA31000200B86828F079
:1011B000F2F9F968280014F09BFAC30006201843DE
:1011C0000A4B10223B627B62094BBA18BB620123B7
:1011D000FB620B33F861D118052006F0A7F9BD4674
:1011E0000DB0F0BDE6050300D4A2020024DD02002C
:1011F000B4AD0200F0B5174C0F00616895B00391D3
:101200002168060008A804916260236006F022F9B4
:10121000051E06D0039B09986360049B236006F0BB
:101220003FF933683A00310005A8019304F026FA2B
:101230002B002A00019905A811F058FA20F0B7FDFB
:10124000050006F025F92800039B6360049B2360DA
:1012500015B0F0BD842E002010B5040012F03AFA4B
:10126000031E054802D0054920F0ECFD2200044988
:1012700001F0D6F906F014F93CA402000C050300B5
:1012800035050300010010B5014820F0DBFDC04624
:10129000D0A60200F0B58BB004900F000392202876
:1012A00003D191420FD0AF4EBFE0049B1B2B01D066
:1012B0001E2B0DD1039938000BF032FB049B002844
:1012C00003D01B2BEFD1A84EAFE01B2BFBD1EAE7DD
:1012D000049B212B3FD1039801F0E8F9002806D0A8
:1012E0000399380020F0AFFE0028ECD1DBE703249F
:1012F000039B1C4005D1039A9C4B126805929A42AD
:1013000023D0049B9A4A9B0038009C5822F0FDFC95
:101310000500039822F0F9FC2B000090220095496B
:10132000954801F07DF947E1039BA20008339D58E1
:10133000280001F0BBF9002800D158E1290038004D
:1013400020F081FE0028BED10134039B5B68059329
:10135000A342E9D8A7E70126314200D116E1039B59
:101360004D101E4000D1E7E05C10049B1D2BC8D837
:10137000180019F087FA1E0028002A002D004500E9
:101380004C004E0050005D0066007B008300B400FE
:101390001E0028002A002D0045004C004E00500081
:1013A0005D0066007B008300CC00D000C6FFD40047
:1013B000D80025432E0070000300734000D5B6E02E
:1013C0000126064331E06540F4E72C402600F2E7B1
:1013D000002C02DA6948FFF755FF1F2C0ADC684B26
:1013E0002341AB4206DBC0232E001B062341A6404F
:1013F000AB42E0DDE917280021F031FB070049E0AE
:10140000002CE7DB1F2C00DD1F242541D2E72E191D
:10141000D1E72E1BCFE72100280009F0E5FA0028CC
:10142000E8D1012665436D002E4330000BB0F0BDBE
:10143000002C00D1DDE02100280022F0B2F80600E7
:10144000B9E7002C00D1D4E028001AF05BFB051CA2
:1014500020001AF057FB011C281C19F08DFE0323F5
:1014600002269843474B0643F618DEE7002C00D1CE
:10147000BFE02100280022F084F8E0E72F00002CD4
:101480002ADA28001AF03EFB0323022798433D4B3B
:101490000743FF1838000BF0B1F98369002B00D126
:1014A0002FE7039A39000498984756E001231C421D
:1014B00006D03900300009F097FA00289AD17E430F
:1014C000012C00D177E739003800641009F08CFA5C
:1014D000002800D08EE77F43002CE7D16BE7002C7B
:1014E00000D186E00021022011F004FB210006005B
:1014F000280022F056F8012740003843B060210050
:10150000280022F03EF8B8400743F7608DE7A54277
:1015100000DAD8E6C7E6A54200DDD4E6C3E6A54278
:1015200000DCD0E6BFE6A54200DBCCE6BBE630003F
:1015300021F0A4FA060078E70323039A1340022B54
:1015400024D1114B1340062B20D028001AF0DAFAD0
:10155000039A011C049803F0E1F8061E00D064E72A
:10156000CFE6C046ACAD0200B4AD02006CD10200C3
:101570006CB702007805030058A60200630503005B
:10158000FFFFFF3F00008080070080FF049B1F2BB0
:1015900000D07FE703980BF031F983690400002B3A
:1015A0000CD1636A002B11D1039822F0AEFB1349D2
:1015B0000200134801F034F805F072FF3A00039975
:1015C00004989847061E00D02FE7EAE706A903987B
:1015D000FFF736FA04002000FFF794FA002800D144
:1015E00061E639000BF09CF90028F4D06BE6039516
:1015F00087E60449044820F025FCC046CA050300DC
:1016000058A602009D0503000CA70200010010B5BA
:10161000014820F017FCC04658A60200F8B50400A7
:101620000D0017001E00002908D018680BF0E6F81E
:101630006368834202D00548FFF7E8FF33003A00B1
:101640002900A068FFF706F9F8BDC046F4040300BE
:1016500001214000014310B5024820F0E3FC05F0F1
:101660001FFFC046F0A40200010010B5014820F0A1
:10167000E9FBC046B4A40200184BF7B530CB0F000D
:10168000160001281AD94B68154A934207D09907CA
:1016900011D114491C688C420DD11C001D00022878
:1016A0000CD0BB68934209D09A0704D10D4A19683F
:1016B0001C00914202D00020FFF7A8FF01A9386862
:1016C00008F064F8019A01000023102026F00AF9BE
:1016D0002A0031002300FFF78DFDFEBD842E00207F
:1016E00024DD020098CC0200F7B50020224A234EE8
:1016F00012783368111D4900CC5A5F18598801903F
:10170000013084466405640D4C431D49A4120968E8
:10171000787807270500BD43F82D1ED06546C00820
:101720008540A1272800A025FF00ED050132E851E2
:10173000D2B2101D4000C55A1F186D0558886D0D96
:1017400068438012001BE3D00B4C2270019A002AE0
:1017500002D00B4A33601160FEBDA020094A5C68CC
:10176000C0058450002902D10A000C00E1E762465E
:101770000B0001920021F7E7CE2D00203C01002054
:10178000400100200C05000030B572B600220E4B5F
:1017900018681A6062B6904210D10C4B0C4A1B6854
:1017A0000C48934200D010001C78002104705A8825
:1017B00042805A6842600822A14200D330BD9D5A3F
:1017C000013185520232F7E7400100203C01002040
:1017D0004401002074010020044B054A1A600023D4
:1017E000044A1360044A13707047C0463C0100204D
:1017F000C09A020040010020CE2D002010B57822B2
:101800000249022012F090FF10BDC046E916000008
:10181000421E084BFF3A10B504009A4207D8FFF762
:10182000B3FF054B241144801860002010BD012037
:101830004042FBE740410F0040010020044B1B6881
:10184000002B01D1034B1B68588800017047C0462C
:10185000400100203C010020F7B53D4A04000D0086
:101860000B00914200D913008022D200D31A0193B9
:10187000FFF78AFF0122A24046680092164207D174
:101880002300A0210327C133FF339B00C9055F500C
:10189000002703789F4206DB002D01D0132B0BD9C4
:1018A0002C4B1860F7BD391D490042185278D208F8
:1018B000944243D00137EDE7009A191D324342604C
:1018C000019A490055050A5A6D0DD20AD2022A43DF
:1018D0000A525205E400520F4118144301334C7070
:1018E0000370851C012225E0009A013BDBB2964380
:1018F00003704660BB42F4DD04335B001B5A0B529D
:10190000EFE72F00131D5B00195A2E894905490D79
:10191000531E1C1D6400245A6405640D8C4204D9B6
:10192000FC88023F7C81013BF3D205335B001E52F1
:101930000132023503789A42E3DBB1E7002DD3D0C0
:10194000019B5A050B5A520DDB0ADB021343D6E703
:10195000FF0300004001002070B500210400FFF7E4
:101960007BFF00210D4B18680578A94200DB70BD94
:101970000B1D5B00C3185A78161CD208944201D084
:101980000131F2E70822524232435A700123A0216A
:10199000A340034AC9058B50E9E7C0463C0100203B
:1019A0000C050000054B10B5186826F0C0FA044B72
:1019B000002800D1034B180010BDC046682A002043
:1019C000B4AD0200ACAD020010B5034B186826F0B0
:1019D000B6FA024810BDC046682A002024DD020085
:1019E00010B5034B186826F018FB21F047F810BD1E
:1019F000682A002010B5034B186826F015FB21F06B
:101A00003DF810BD682A002010B5034B186826F079
:101A100012FB21F033F810BD682A002010B5034BEB
:101A2000186826F0BDFA21F029F810BD682A0020B8
:101A300030B593B012F0C6FD184C200026F0BDFE64
:101A4000174D286815F058FD200026F0BBFE12F057
:101A5000A9FD22F00EFA20F017FA0400296803A865
:101A600026F05BFA0F4B20000A93039B0B93049B19
:101A70000C93059B0D93069B0E93079B0F93089B5E
:101A80001093099B0193119320F02BFC200020223E
:101A90000AA902F037FD044813B030BD702A0020B7
:101AA000682A002055BA11C024DD0200F8B5114D96
:101AB0000400286826F03BFA002802D12000FFF736
:101AC000B7FF0D4B1B78002B0DD10C4E3478E4B2D0
:101AD000002C08D101272868377003685B68984795
:101AE000054B34701F70286815F0E2FD20F0C6FF2A
:101AF000F8BDC046682A0020CF2D0020D02D002040
:101B0000F0B58DB020F0C0F90E4B02689A4217D1A3
:101B100004694168089444698268C36809948469C7
:101B2000C0690A9484466C4605910692079308A8FA
:101B3000E0C8E0C4604620600348006826F0D7F99A
:101B40000DB0F0BD55BA11C0682A002010B50400D0
:101B5000082020F028FA024B4460036010BDC04604
:101B6000FC9B0200014BD8607047C046842E0020C9
:101B7000034B82B0D86801ABC01A02B07047C046B0
:101B8000842E0020014B18617047C046842E00202F
:101B900010B54E21024820F045FA05F081FCC04600
:101BA00068A5020007B5054A01ABD1681269CB1AD6
:101BB0009A4201D8FFF7ECFF07BDC046842E0020F3
:101BC000F0B5802787B02B4D02907F422C78002CF7
:101BD0001CD063B2002B12DA6E787C40E4B2002E87
:101BE00014D0013CE4B2FF2C02D101350135EDE700
:101BF00004ABD81D0121067013F018FFF1E704AB08
:101C0000D81D0121047013F011FFEFE7052702989A
:101C100025F01FFD0124A74227DD0025164E2200D6
:101C2000290030000CF0B0FA6B4601901B79002BB4
:101C300015D0631E1A002900300003930CF0A4FA9B
:101C4000031E0CD12200290030000CF069FAFF229B
:101C5000019B290013403000621E0CF061FA01352F
:101C6000052DDBD10134E4B2D5E7013F002FCED101
:101C700007B0F0BD100703002400002010B5C820F5
:101C8000FFF79EFF004810BD24DD0200F7B5037882
:101C90000400002B01D10020FEBD402B20D10123E8
:101CA0000193002304221E001D001900944622788F
:101CB000002A3ED101200029EEDC002DECDC002EB4
:101CC000EADC033B8342E7D9013C23785C2BE3D079
:101CD000019A002ADFD00A3B581E8341D8B2DBE7C5
:101CE0003F4920F0E2F80028D9D13E49200020F0F9
:101CF000DCF80028D3D13C49200020F0D6F8002899
:101D0000CDD13A49200020F0D0F80028C7D1384979
:101D1000200020F0CAF80028C1D13649200020F068
:101D2000C4F80028BBD13449200020F0BEF801904F
:101D3000B7E76078272A0AD1002B46D0032B02D1BF
:101D400027284AD143E0012B47D8012244E0222A28
:101D500011D11A006746BA4309D1222805D1A278C9
:101D6000222A02D10234624636E0002B01D0022B37
:101D700033D1022230E05C2A0AD1272803D022285E
:101D800001D05C2804D11A00501E8241A41824E01E
:101D9000002B22D15B2A12D006D8282A0DD0293A4E
:101DA00050425041091A18E07B2A0AD07D2A0AD0F5
:101DB0005D3A504250412D1A0FE001310DE00135DE
:101DC0000BE0013609E0013E07E02728BDD1A278EB
:101DD000272AB8D10234243AD31A013467E7C0461F
:101DE000228D0300BA070300C0070300C4070300E5
:101DF0009B840300C7900300C6130300F0B58BB0AB
:101E0000079343180390049201930093009B5C1E78
:101E1000039BA34201D9009310E0207813F084F9CA
:101E2000002801D00094F1E7207813F089F9002808
:101E3000F8D123785F2BF5D02E2BF3D07E4B1D6885
:101E4000009C019B9C4202D223782E2B21D1009B27
:101E5000E71A019B9C4241D300242600029401947E
:101E6000AB68A34256D8019B002B00D084E0009BB6
:101E7000039A93422FD1714C3A002100180027F0A9
:101E80007CFB002827D1079BE41907301C60C01B8E
:101E900022E00134D5E70136AB68B3421BD9F30029
:101EA0000293EB68F20098580028F4D00428F2D08E
:101EB00009A907F06BFC099B0100BB42EBD13A007A
:101EC000009827F0DFFB0028E5D1EB68029A9B1809
:101ED0005868002804D100200BB0F0BD0026DBE7D5
:101EE000032318420CD10368554A934205D120F0D0
:101EF00057FD0500631C0093A2E7524A934201D0AC
:101F00000AF07CFC856B002DE5D04F4B2A689A4285
:101F1000F0D0E0E7EA68E300985800281CD00428D5
:101F20001AD009A907F032FC099B06900593BB4221
:101F300012D301003A00009827F0A4FB00280BD12F
:101F4000029B002B12D03B009E4202D3059A9A427C
:101F500004D2019B01330193013481E7029AD15CE1
:101F6000069AD25C914205D10133EDE7069B059EAE
:101F70000293EEE71E00ECE7019B012B01D0BE426D
:101F800055D9029B079ADB191360F01BA4E7029B4B
:101F9000EA68DB00985800282CD004282AD009A928
:101FA00007F0F4FB099B03900593BB4222D3010089
:101FB0003A00009827F066FB019000281AD1330000
:101FC0000F220F33DC171440E41824112401A41B42
:101FD000012C00DC1034059A33199B18402B1FD8B4
:101FE000019B9C4214DC0399049820F030FF099B6C
:101FF000F6183619029B01330293AB68029A93429A
:10200000C5D81249049820F022FF0120404263E71E
:102010000F49049820F01BFF019B01330193DFE778
:10202000039A0C49049820F0D0FF099EE2E70023B0
:1020300040260293E1E7C046842E0020AE0703004D
:102040006CB20200B8B8020098CC02008E6F030098
:10205000E15A0300B6070300F0B50E00110000229C
:1020600085B0B71C03901C0030000D4B0092BF00E0
:1020700000F064F938001FF096FF46600600050086
:10208000039B083F03600836E719BC4202D12800D1
:1020900005B0F0BD002101CCFEF7D2FC01C6F4E78B
:1020A000FFFF0000F7B5019111490400160000255B
:1020B00020F0CDFE7368AB4204D80E49200020F01A
:1020C000C6FEF7BD002D03D00B49200020F0BFFE57
:1020D000019BAF00DA590949200020F076FF330058
:1020E00008330122D95920000AF0A0FB0135E1E7AD
:1020F000311A0300BD420300C8070300CB070300E9
:10210000F0B58BB00600080011001A0010AB1F7864
:10211000314B05AD01950093052300F03FF9912067
:1021200000011FF040FF2D4B04A91860059B47607C
:1021300043706B682A4F0370AB6804008370EB68D0
:10214000C3702B7C30003B6007F020FB0025254B43
:1021500003900C201D601FF026FF234B0600036038
:102160000AF032F9B0600AF02FF9204B204A1860CB
:10217000204B11001D70204B70601D701F4B3000F4
:102180001D602B0009F0F2FF2000049A039920F053
:10219000C8FC200004F08AFB0400A84207D109F023
:1021A000EBFE0E4B1C60164B1868FFF76BF8012214
:1021B000144B1A700AF002F90028FBD1124B943329
:1021C00018603B68002B04D00C4B104819681EF0B7
:1021D00095FF07480BB0F0BD189D0200182F002096
:1021E000FC010020A8010020649D0200A401002041
:1021F00024DD0200D32D0020D12D0020AC010020D1
:1022000018000020D22D0020842E0020CF070300CC
:1022100000220D4910B50B78DBB2934210D10B4A66
:102220001478002C02D001240C701370084B1B781A
:10223000002B07D0074A136820331360064B1A6837
:10224000100010BD8268FBE7D12D0020D22D0020A8
:10225000D32D0020A8010020A401002073B501A9FE
:1022600007F094FA019B06001648502B17D88020DF
:1022700040001FF098FE144C0500230094331860B2
:102280000023019A9A420CD15B232800AB540CF036
:1022900005F80022904209D1943420600B48FEF7E3
:1022A000F1FFF15CE9540133ECE70132AB5C9B2BAD
:1022B000FBD12900064820F0E5FF00239434236079
:1022C00076BDC046DE070300842E0020EC07030025
:1022D00040BB0200D2235B005843134AF0B5136899
:1022E000000C834206D9114C236801332360136824
:1022F000203B13601F23050001270D4E9D431468EA
:10230000A5420CD803401A1D202A00D92022094CCE
:1023100024680434934204D3074B1860F0BD37702F
:10232000EDE7E1540133F5E7A8010020AC010020FE
:10233000D32D0020A4010020B001002010B51C0006
:1023400002AB1B78002904D0002B02D10E48FFF706
:102350005DF9A24207D1824214D003000B490C4818
:1023600000F05EF906E0824206D9121A09490848CF
:1023700000F056F905F094F8844203D203002200DD
:102380000549ECE710BDC046020803002B08030016
:1023900058A602006408030096080300F0B5002464
:1023A000170087B00C9D039004910593029401944B
:1023B000059B9C4206D1019B039A934240D225483B
:1023C000FFF724F9039B9C4213D26B889B05F6D43C
:1023D000019B049A01330193A300D058FF226B881C
:1023E000A6001340012B24D10AF02AFC0D9B98551E
:1023F00017E0062329880022C9001943380014F089
:10240000D7F9002810D16B88DB0506D52A88124938
:10241000124800F005F905F043F80D9A6968A30029
:10242000D15001340835C3E7029B40680133029361
:10243000D4E7022B01D10AF0C5FA0D9B9851F0E7C1
:102440003B68029ADB08934201D90548B8E707B018
:10245000F0BDC046DC080300C508030058A6020012
:10246000FD08030010B5034A0349044820F0ADFD00
:10247000034810BDF3090300B707030034B7020097
:1024800024DD020010B5034A0349044820F09DFDF5
:10249000034810BD1B090300B707030034B702004F
:1024A00024DD0200030010B50548002B03D11FF006
:1024B000B3FD04F0F5FF09681FF0B4FDF9E7C0466D
:1024C0001CA6020010B5034809680AF0D3F90248B7
:1024D00010BDC04634B7020024DD0200F7B50D0080
:1024E000110000220600009228001F000B4BFFF78E
:1024F00025FF10201FF064FD041E08D1084B094A77
:10250000094C5A62002326602000A360FEBD3900FA
:10251000280010F0EFFAE060F4E7C046FFFF00008B
:10252000842E002064D102009C2E002010B50138BA
:1025300010C910F0DFFAE060004810BD24DD020091
:10254000F8B57F2453B205000E0017001440002B8D
:102550001BDB631E012B18D80B68586825F04EF85A
:102560000100280020F073FC022C12D11049280031
:1025700020F06DFCF368002B02D05A68002A0ED1BF
:102580000C49280020F063FCF8BD022CEED0002C92
:10259000F0D03A00F168280010F050FAF4E7012A70
:1025A000F7D10022996828000AF040F9ECE7C0460C
:1025B0008A140300C3120300C36803485A68002A40
:1025C00000D098687047C04624DD0200136810B53B
:1025D0001400002B0BD0FC23FF33994206D10C4B87
:1025E00052689A4202D10023C380236010BD094B78
:1025F000994201D1C368F8E7074B02689A42F5D1C6
:10260000064B9942F2D1FFF7D7FF2060EEE7C046B4
:1026100024DD020003020000A4A50200E302000082
:102620000EB470B5050087B010201FF0C9FC041E61
:102630000BD11A4B1A4A1B4C9D6118625A6220003A
:1026400007B070BC08BC03B018470021056081606A
:10265000012010F04FFA2521E06005000B9826F0CC
:10266000F2FF061E09D10B9827F005F83200010091
:102670000B9806F037FCA860E1E702A8102124F0CF
:10268000C3FE0CAA0B9902A8019212F099FF02A9AD
:102690000548E56806F0F0FBEDE7C046842E002013
:1026A00064D102009C2E002040BB020010B5030044
:1026B000820708D1064A0168914204D1054AD968C7
:1026C0000120914203D00449180006F099FA10BD88
:1026D000B8B80200DD240000E4A1020010B5040037
:1026E0000AF08CF8034BC2689A4200D02469002398
:1026F000A36010BDDD240000F8B516001D00040025
:102700000F000AF07BF8154BC2689A4200D024698A
:10271000A068002811D10C301FF052FCA0600028E6
:102720000AD003236360E288A1689300CB180332C8
:10273000E2801F605E609D60F8BDE388A18802337F
:102740008B42F0DB0331890001221FF057FC002887
:10275000F2D0A388A0600333A380E4E7DD24000067
:1027600070B5150004000E000AF048F8064BC26868
:102770009A4200D02469A368002B02D133602B60F9
:1027800070BDE2883260FAE7DD2400000A4A0309DE
:1027900013400A4A000110401843094A83081340B5
:1027A000084A800010400343074A58081040074A6F
:1027B0005B001340184370470F0F0F0FF0F0F0F05D
:1027C00033333333CCCCCCCC55555555AAAAAAAA11
:1027D000044B054A05491A60002205481A719960A0
:1027E0009A817047B401002000200A07746962755D
:1027F00024DD020002220B4B10B5DA670022012112
:10280000094B5A61094A11615A69002AFCD0084CE7
:1028100088342068002803D01FF0F4FB00232360D5
:1028200010BDC04604E100E0FC1000400010004074
:10283000842E002070B5FFF7DDFF0323314D6E7845
:10284000AC782B70744320001FF0ADFB00222E4BA0
:102850000419883318602D4B86191C602C4B0121FC
:102860001E602C4B5A608022D20511605A68002AE3
:10287000FCD00422284CAA56284BE250EA78043BAC
:10288000E2506A7B0833E250AB6818BAFFF77EFF6C
:10289000234BE050287BFFF779FF0022214BE050CB
:1028A000214B0820E2506978C0250B02194382238E
:1028B0005B040B43A321C90063501C4B1C49E2502D
:1028C0001C4B6D00E1501C49043BE15001211B4BA6
:1028D000E2500433E1501A4BE650C1239B00E05014
:1028E000184B06385851186080239B00E250164B55
:1028F0005A6061605A68002AFCD000221A610123E4
:10290000A36070BDB4010020842E0020C801002007
:10291000C4010020FC000040001000400C05000035
:102920001C0500002405000014050000340500000B
:10293000FFFF00003C050000211001002C050000F5
:102940000405000000E100E0FC10004010B5FFF7B6
:1029500071FF014810BDC04624DD020010B5FFF72D
:1029600049FF1D23054C6370054BA3604923237366
:10297000FFF760FF04230348237010BDB40100205B
:1029800026877D2F24DD0200F8B5FFF733FF0223F1
:102990002224304D2B70AB785C4320001FF003FBEA
:1029A00000222D4B0419883318602C4B22301C60F8
:1029B0002B4B012118602B4B06005A608022D20558
:1029C00011605A68002AFCD004220127AA56264C1E
:1029D000264BE250EA78043BE2500833E750AB68FC
:1029E0006F7318BAFFF7D2FE214BE050287BFFF738
:1029F000CDFE204B204AE050204B2149E250214A95
:102A00000433E2500022204B2048E2500433E750C8
:102A1000022363501E4960501E48043960501E490D
:102A200008206650C121890060501C497930FF3070
:102A30000B500B60FF33FF33E250194B5A60676055
:102A40005A68002AFCD000221A6101231548A360AD
:102A5000F8BDC046B4010020842E0020C80100202B
:102A6000C4010020FC000040001000400C050000E4
:102A70001C050000240500000600030014050000EA
:102A800034050000260004012C050000FFFF0000B3
:102A90003C050000211001000405000000E100E0F9
:102AA000FC10004024DD020070B52825FFF7A2FECF
:102AB0002A4C2B4B2380A3785D4328001FF073FA28
:102AC000284A451915600022274B012188331860D8
:102AD000264B28301860264B5A608022D2051160A0
:102AE0005A68002AFCD00421224B6156224A995090
:102AF000E178043A9950617B0832995000215524BD
:102B00001E4A99501E4A9C501E4A1F4C995004322E
:102B10009C501E4A1E4C99501E4A9C501E4C043A12
:102B20009C501E4AC0249850C12208209200985000
:102B30001B4A0638640010511060802292009950A0
:102B4000184A51600131596051680029FCD00021B8
:102B50001161012214489A6070BDC046B401002082
:102B600001260000C8010020842E0020C40100209E
:102B7000FC000040001000400C0500001C05000097
:102B80002405000014050000282801013405000078
:102B9000FFFF00003C0500002110010004050000BB
:102BA00000E100E0FC10004024DD020010B5FFF75A
:102BB00021FE014810BDC04624DD0200F8B5002604
:102BC000FFF718FE324C6778A578013701357D4351
:102BD00028002670E6731FF0E6F9802201212D4BB4
:102BE0004519883318602C4BC7191D602B4BD20533
:102BF0001F602B4B5E6011605A68002AFCD00421D4
:102C0000284B6156284A00209950E178043A99509F
:102C1000617B08329950A168244A08259950217B8C
:102C2000234A244E99500121234A98500432995046
:102C3000224A9D508122647892042243A324E40016
:102C40001A5102221E4C1A511E4C1E511E4E043C9B
:102C50001E5118261D4C1E511D4C1F51C124A4008D
:102C60001D511C4C7935FF35625122608024A4002F
:102C70001D590E322A431A51174A50605960516843
:102C80000029FCD00021116101229A60F8BDC046E4
:102C9000B4010020842E0020C8010020C4010020BF
:102CA000FC000040001000400C0500001C05000066
:102CB00024050000FFFF00002C05000014050000A3
:102CC000340500003C0500002110010054050000FF
:102CD0000405000000E100E0FC10004010B5FFF723
:102CE0006DFF014810BDC04624DD0200064B10B543
:102CF00088331B68002B05D1044905481FF099F95A
:102D000004F0CEFB10BDC046842E0020700B0300E3
:102D1000D0A60200F7B5FFF7E9FF0221A320214B5F
:102D2000C000D967204B214A1C58214801930078E4
:102D3000002803D11F4F11603800FEBD1E4B1F4EEF
:102D400088331B68E4B21C193368A342F2D023789D
:102D50003F201D008543C02DECD10340191C202BC2
:102D600000D92021C9B20531601C06F0D3F8144BFC
:102D700035685B780700E1186A1A2000009326F096
:102D800013FC009B019AED1A0E4B3560D5500022C2
:102D90000D4B1A610123019A9360044ADB181360FA
:102DA000CAE7C04604E100E00010004000E100E096
:102DB000D800002024DD0200842E0020C401002061
:102DC000B401002004050000FC100040F7B5040029
:102DD000FFF78CFF0222534B534DDA67534A2B689F
:102DE0001078052800D99BE017F042FD039A4F6A3E
:102DF0006A80A3224E49D2008E584E4AF6B28832DB
:102E00001268013696199E4205D102234A4A4B4C5C
:102E100013602000FEBD3778002C1DD1701C3900D6
:102E200006F078F8791CFF432B6871185A1A0400D1
:102E30003000019326F0B8FB019BDF192F60296851
:102E40003B4B3F4A995000213E4A116101229A6052
:102E50000223394A1360DCE7022F0DD97378012B66
:102E60000AD1B278002A07D1F378012B04D1F91ED8
:102E7000301D06F037F8D5E702232F4A3249136098
:102E800032481FF0D6F804F00BFB2A4A883210684B
:102E9000070022379F42B8D0C31CDE7F24303100A8
:102EA00006F038F82B68B11C79185A1A040038005B
:102EB000019326F079FB019B9E1B023E2E60BEE72C
:102EC00057781C4A88321668F6199E429DD0390000
:102ED000300006F01FF82B68F1195A1A0400300070
:102EE000019326F061FB019BDF1BA7E7114A8832A3
:102EF000126817002D379F4200D186E733321678CB
:102F000038000836310006F005F82B68B9195A1A4E
:102F100004003800019326F047FB019B9E1BCDE780
:102F2000064C8CE704E100E0C4010020B40100205D
:102F300000100040842E002000E100E024DD0200AB
:102F400004050000FC100040E40B0300D0A60200C2
:102F5000074B10B51B7800209A1E032A02D9002BBC
:102F600003D10120FFF732FF10BDFFF7D3FEFBE7CF
:102F7000B401002010B50902074B4840013AD2B213
:102F8000FF2A07D004B2410088B2002CF6DA59407B
:102F900088B2F3E710BDC04621100000082310B529
:102FA0000902074A484004B2410088B2002C01DA05
:102FB000514088B2013BDBB2002BF4D110BDC046BA
:102FC00021100000F0B507008DB01500002805D0D5
:102FD0008F4990481FF02DF804F062FA8E4B08AA32
:102FE000180052C852C21100042602680A605A78BA
:102FF0009E5706929A780592DA7802929A68009221
:103000001A7B01925A7BDB7B039204936B68BB4271
:103010005FD9FB000793AB68FA009B181A68002A77
:1030200034D0042A32D0586809F0F8FCAB68FA00B2
:103030000400985805F078FFB623FF330200984249
:1030400033D00CD8B423FF33984221D027D8013B8A
:10305000984215D071497248FFF7E2FABCE7B823ED
:10306000FF3398422DD026D3013398422BD06D4B9D
:103070009842EFD1012C00D9C7E0E3B2049305E0F8
:10308000631EFA2B00D9C0E0E3B206930137BDE717
:10309000631EFD2B00D9B8E0E3B20593F6E7642C7C
:1030A00000D9B2E0E3B20293F0E7072C00D9ACE01C
:1030B0005D4B1E57EAE7032C00D9A6E0E3B2039369
:1030C000E4E70094E2E7FF2C00D99EE0E3B201932D
:1030D000DCE7564B08AC88331B68002B17D1069BE6
:1030E00026716370059BA370029BE370009B0A939B
:1030F000019B2373039B6373049BE373464B07CCD1
:1031000007C31A002368136049480DB0F0BD069B41
:10311000414D6370059BA370029BE370089A454B79
:1031200029681A400B409A4212D0FFF763FB009BBC
:1031300026710A93019B2373039B6373049BE373C0
:103140002B0007CC07C322681A60FFF737FDDBE7C7
:103150000222394B394DDA670023394C6B61013358
:1031600023616B69002BFCD0009A08AB0A92019A8C
:103170001E711A73039A5A73049ADA73264A11005D
:10318000944685CB85C11B682E4F0B602E4BE650B5
:1031900063461B782D4E052B0ED0A1220299D2003A
:1031A000A15003990832A150002B0ED0012B22D13F
:1031B0000023A35155330BE002981EF06DFFA123AD
:1031C000DB00E050029A224BE250009BA351019B8E
:1031D000E35100236B60013363606B68002BFCD00C
:1031E0000023C02102222B610133A360194B490047
:1031F0005A501A6088E7009B18BAFFF7C7FAA05127
:103200000198FFF7C3FAE051E3E7134923E7C0460B
:10321000850B030058A60200B4010020A90B03008F
:10322000D0A60200EA020000680B0300842E0020F2
:1032300024DD020000FFFF0004E100E0FC1000407C
:1032400000100040240500000C0500001C050000D3
:103250005405000000E100E0BF0B0300F0B5A74BF0
:103260008FB05A68002A04D00022A5495A60013262
:103270008A601A69002A26D00027A24D1F612B7888
:10328000BB4222D1A3239E4A9F48DB00D458026848
:10329000E3B211788B4201D2190014708024984D4A
:1032A000E4002C59012C0BD1984C02335B18246894
:1032B000D3189C4204D30131954B52180260EA5056
:1032C00001238F4A93600FB0F0BD012B00D094E032
:1032D0008D4B6E781C683200210004A826F05BF943
:1032E000EB7B002B71D101930FE004AB01211F2276
:1032F00018000191002A64D0DC7F997F6410C90115
:103300002143D977013B013AF4D204AB5C79A41094
:10331000282C52DC04AAA3189E79DF7972027F0060
:1033200017431B7A7FBABFB27F2B02D980235B0081
:103330001F430025631D7748029304ABE95C082214
:10334000FFF718FE029B0135AB42F6DA7F2331000E
:1033500001229943FFF70EFE40BA80B2B8422CD149
:1033600000236D4E05223370674B04A91D6840236E
:103370005B4223432B70681C26F00DF92A000932AA
:1033800004ABA91D14199A79D8795200C0110243CF
:103390000A70013101338C42F5D15A4B5B495A789E
:1033A00009685300EB18994205D3574BAD181D60BF
:1033B000534A574BD55001233370019B012B94D1B5
:1033C0007EE70178491001709CE7E823524D237095
:1033D0002822601C04A92F7026F0DDF84B4A7300E8
:1033E0001268E3189A4205D3474BA4191C60444A5B
:1033F000474BD45001232B7062E7022B18D1802356
:103400003F4ADB00D358012B00D059E73E483F4CE0
:10341000036824681A781100243159188C4200D2AC
:103420004EE702329B180360394A35498B5047E713
:10343000032B0CD134496878344C0B684200246863
:103440009A18944200D23BE71B180B60ECE7042B60
:1034500026D12D4F6B783C68029325001B192F4E07
:103460000193019B0136AB420BD028781EF004FE7D
:10347000039030791EF000FE039B43402B70013512
:10348000EFE7029B5B00E418204B1B68A34200D2CD
:1034900016E7019B1A4A3B6001991D4BD1500FE77B
:1034A000052B00D00CE78023154ADB00D358012BF5
:1034B00000D005E7144F3C682300667828331A785B
:1034C000013B9A719C42FAD123781549637100231C
:1034D0000422601C0B6026F05EF8EB780B4A237028
:1034E000330012683533E3189A4200D2E8E6083612
:1034F000074B034AA4193C60D450E1E6FC1000409D
:1035000000100040B4010020C4010020C8010020C8
:1035100004050000FFFF0000D8000020410B03005D
:10352000CC010020F8B5FFF765F905232D24354DB2
:103530002B70AB785C4320001EF035FD0022324B2F
:10354000041988331860314B2D301C60304B012139
:103550001860304B06005A608022D20511605A680C
:10356000002AFCD004222C4CAA562C4BE250EF78B7
:1035700038001EF091FDA123DB00E050284BA22271
:10358000E7500323D200A350264A6B738B33A3501A
:103590002B73254A254B0121A3500022AB60244BFD
:1035A0002448E2500433E150234BC025E050234827
:1035B0000433E0500420224BFF30E050214B2248DE
:1035C0006D00E0502148043BE0509120204BE0503A
:1035D000204B8938E650C1239B00E0501E4B063833
:1035E000585118601D4BFF30FF305A6122505A600D
:1035F00061605A68002AFCD000221A610123A3608E
:10360000F8BDC046B4010020842E0020C80100206F
:10361000C4010020FC000040001000400C05000028
:1036200054050000240500001C05000000D6BE89DA
:103630002C0500000601020014050000250003020D
:10364000340500003C050000555555005B060000A0
:10365000440500000405000000E100E0FC1000400B
:1036600010B5FFF75FFF014810BDC04624DD020022
:10367000F7B50C00009206001F00FFF737FB6B49FF
:103680000A78012A00D1C2E0694D2B0088331868FE
:10369000002A1FD1A3236749DB00CB58E119DBB215
:1036A000994204D91F1BA34201D21C001700E31941
:1036B000037088352B682200581C310025F06BFF01
:1036C000002F6AD03A00286801340099001925F0CB
:1036D00062FF62E0022A13D12200FE2C00D9FE22F2
:1036E000027001208B7B88355C0020432C680133FD
:1036F00060700320034028688B7302303100E6E7D6
:10370000032A01D14A78F9E7042A00D080E0002793
:103710006D3202701968623A4A70196846328A70CE
:103720001968263ACA7019684E320A7119680A3245
:103730004A711968613A8A7119682332CA71019312
:10374000019B1B680093A7420CD2F05D1EF094FC15
:10375000394A009BD2195279DB195040013718724F
:10376000FFB2EDE700263548671DBE4207D2009B39
:103770009B19D9780136FFF711FCF6B2F5E7A31CC7
:103780002F4A5B009B5A88355840009B80B21B191A
:1037900002121A722A68141960720222294B2549F2
:1037A000DA670022284B5A6101320A615A69002AFD
:1037B000FCD01F4A88321068244A88500020586084
:1037C0000130086058680028FCD001208860002083
:1037D000186118690028FCD01D4800688850002234
:1037E0005A6101320A615A69002AFCD000225A60EB
:1037F00001324A605A68002AFCD000221A61012373
:103800008B60C021134B023249005A501A60F7BD39
:10381000052AC2D1327802701968621E4A700021EE
:10382000186881701868711C033050E7B4010020DB
:10383000842E002000100040410B0300D2B5000090
:1038400010FF020004E100E0FC100040040500004D
:10385000C401002000E100E007B50B4B01A91B7873
:10386000023B032B08D805F091FF00231A000199B1
:10387000FFF7FEFE05480EBD05F088FF019B020024
:1038800003210348F4E7C046B401002024DD020010
:103890003D0B03001FB5012201A909F04DFA0023D9
:1038A00001981A000299FFF7E3FE014805B000BD38
:1038B00024DD0200F8B5FFF719FA374E00243778F7
:1038C000022F67D10422354B883319680A70B57B03
:1038D00018686900417018683149023025F05BFEB4
:1038E000032301351D402F4BB573DF678023012172
:1038F0002D4A9B00D4502D4B5C6111615969002900
:10390000FCD0002159600131116059680029FCD0B8
:10391000012191600021196119690029FCD0244915
:1039200008682449505000215961013111615969D9
:103930000029FCD0002159600131516059680029EB
:10394000FCD0002401211C61FA2091600138C0469E
:10395000C046C046C046C046C046C046C046C04637
:10396000C046C046C046F1D11B69A34204D08023A3
:10397000DB00D458631E9C41802300219B00D15062
:103980000533FF330831D15002220B4B7931FF311F
:103990005A501A602000F8BDB4010020842E002087
:1039A000640B030004E100E000100040FC10004044
:1039B000C40100200405000000E100E010B5FFF79D
:1039C00079FF034B002800D0024B180010BDC04601
:1039D000ACAD0200B4AD0200F7B5FFF787F9404B7C
:1039E00000201B78022B00D074E03E4A3E4CD36787
:1039F000FF33FF33E05001233C4D686123616B6965
:103A0000002BFCD0012637000422394B883319687B
:103A10000A7033491868897B019149004170186820
:103A20003449023025F0B7FD0322019B01331340D6
:103A30002B4A9373A123DB00D670E65000236B6002
:103A400027606B68002BFCD00023A7602B612B69DB
:103A5000002BFCD0284B1A68284BE25000236B61E6
:103A600027616B69002BFCD000236B6067606B687B
:103A7000002BFCD00023FA202B61A7600138C04640
:103A8000C046C046C046C046C046C046C046C04606
:103A9000C046C046C046F1D12B69002B04D080231C
:103AA000DB00E358002B16D10136652EACD1002384
:103AB00080220021C0209200A1500532FF3208313F
:103AC000A1500F4A0639400011501160012B04D15A
:103AD000034BD878FEBD0123EAE701204042F9E715
:103AE000B401002004E100E000100040FC100040A0
:103AF000842E0020640B0300C40100200405000094
:103B000000E100E010B5FFF767FF034B002800DB82
:103B1000024B180010BDC046ACAD0200B4AD0200AF
:103B2000F8B5214E3568696801292DD9AB684C1E5E
:103B30001A5D0A2A28D15A1E002C01DC220008E056
:103B4000105D0A28FAD0013CF6E7985C202802D1E3
:103B500001329142F9D8002C0BDD501C814208D172
:103B6000601E002805D001381F5C0A2F0CD0202FC2
:103B7000F7D05B18023B1B78141B3A3B5A42534167
:103B8000A408E418013C00D2F8BD084F0422390013
:103B9000280023F01DFC0421380011F039FF33699F
:103BA00004333361EEE7C046D0010020DE5A030043
:103BB00010B520220021024825F009FD10BDC046A5
:103BC000E42E0020084B10B5426818600020986071
:103BD00018750138D86008005A601A61996123F09D
:103BE0002BFDFFF79DFF10BDD0010020F8B5037835
:103BF0000400002B1ED0104D286E002804D0210098
:103C000025F02FFD002815D0200025F034FD471C9D
:103C100038001EF0D5F9061E0CD03A00210025F020
:103C2000BAFC2B000722996F013AD967043B002A9E
:103C3000F9D12E66F8BDC046842E0020F0B5B84CF0
:103C400002002068A568436885B00193002D00D06C
:103C5000FDE0531E042B11D8636801998B4200D1FB
:103C600095E0012A00D12AE1022A07D1236962687E
:103C7000934200D94FE10122524288E0032A00D149
:103C800085E0042A00D12FE1052A00D107E1062AA8
:103C90000ED12369019A9342AD416D42002DEADDB8
:103CA0002368290098682369C01811F0B1FE1FE04D
:103CB0000B2A21D1019B2269991A23F049FC236820
:103CC000019A5B68934204D213002269981A11F09A
:103CD000D5FE2268236951689068C91AC01811F08E
:103CE00097FE236858682369C01A401B11F0B4FE80
:103CF00023695D192561BEE70E2A13D1E368002B05
:103D0000B9DB013BE3606268019B991A23F020FC58
:103D1000E368002B18DB1633824A9B00D31899689E
:103D200020680FE0102A16D1E368062BA3DC5D1C87
:103D30007C4A17339B00D318996800299BD063688D
:103D4000E560436023F0C9FB63682269D61A2268E4
:103D50005568ED1A0AE0152A0CD12369626861687A
:103D60009A1A23F0FCFB236962689E1A0127002E31
:103D70002FDCA4E70D2A0DD16B4823F05DFC2068F1
:103D800023F090FB6368C018FFF730FF002210009B
:103D900005B0F0BD01231B2A62D0082A01D07F2A7A
:103DA00020D121696368994200D864E701228668BE
:103DB000D21AF75C202F13D1D71801339942F8D8C3
:103DC0000126032F00DD0336891B320023F0C7FBD9
:103DD0000127300011F040FE23699E1B266178E028
:103DE0000126F1E7092A28D1636822698068D11A7F
:103DF000C0184E4A03ABFEF701F8061E00D13AE7A1
:103E00000027431C0BD1A06923F016FC63682269CC
:103E1000D11A22689068C01811F0FAFD4FE72369A3
:103E20002068F918039B01375A1C03921A7823F073
:103E30007DFBBE42F3D1350041E71300203B5E2BF2
:103E400000D918E7216923F07AFB012537E7012D16
:103E500008D104234F2A03D002235B2A00D0002379
:103E6000A36008E7022D20D11300303B092B03D8B3
:103E700003232275A360FEE60023A360412A00D13C
:103E800052E7422A00D139E7432A00D101E7442A08
:103E900000D1EBE6482A12D0462A00D0EBE60027F4
:103EA000019B22693E009D1A0EE00021032D29D1BD
:103EB0007E2A24D1237D312B01D0372B0DD1002533
:103EC0002F00236962689E1A0023A3609E4200DDD2
:103ED0007FE7002F00D1E1E6F1E61A00FB25343A36
:103EE0002A42DCD0332B0AD12169019B994206D2A8
:103EF000012223F034FB002501272E00E4E70025F2
:103F00002F00FAE7042D04D1462AC8D0482AD6D07B
:103F1000A5E7A160AFE6002501262F0059E7C046BE
:103F2000D0010020842E0020CA0D030034B7020007
:103F3000F7B5CC1CA400070020000E0001921EF073
:103F400032F822000500054B4760866003600C3A9A
:103F500001990C3025F01FFB2800FEBD8CA8020043
:103F60000023820708D10068044A0133904203D03D
:103F7000034BC01A434243411800704704A9020092
:103F8000C8A80200044B88600B60044B08004B601B
:103F90000023CB607047C04684DC02001922020077
:103FA00030B585B0050008006946FCF749FD0400FE
:103FB0002000FCF7A7FD011E02D1064805B030BD68
:103FC0002B1D0022180023F0E3FC0028F0D002484B
:103FD000F4E7C046B4AD0200ACAD020070B5050018
:103FE00010201DF0E0FF0400074B696808C023F0B3
:103FF000C5FCAB68E968A3606B68E0689A0025F0CF
:10400000CAFA200070BDC04604A90200F7B504003A
:104010000D0000268B0704D10B68214E9E1B7342B6
:104020005E41AB68002B0AD1002E03D01D49200051
:104030001EF00DFF1C4920001EF009FFF7BD002EE9
:1040400003D01A4920001EF002FF194920001EF07B
:10405000FEFE002701236A68BA4207D815492000EE
:104060001EF0F5FE002EE9D01349E4E7BA000192F4
:10407000EA68B9005258002A0FD0042A0DD0002B4C
:1040800003D10E4920001EF0E2FEEB68B90059583A
:104090000122200008F0CAFB00230137DBE7C046FD
:1040A000C8A802003C0C0300430C0300490C0300A9
:1040B000540C0300FB580300BD420300C807030073
:1040C00010B5830707D1044B02689A4203D1034914
:1040D00003481DF0B7FE10BDC8A80200040C030081
:1040E000A8A1020070B50D000400FFF7E9FF290048
:1040F000201D012223F04CFC004870BD24DD02008D
:1041000070B50D000400FFF7DBFF2900201D02221F
:1041100023F03EFC004870BD24DD020070B50600AF
:1041200008680D000124FFF7CBFFB44201D3044817
:1041300070BDA300E95828681EF00CF80134F4E7BC
:1041400024DD020070B50D000400FFF7B9FF280060
:104150000021FCF775FC05002800FCF7D3FC011ECC
:1041600001D1044870BD231D0322180023F010FC68
:10417000F2E7C04624DD020010B50400FFF7A0FFFF
:10418000201D23F091FC014810BDC04624DD020033
:1041900010B501221EF00FF8004810BD24DD02000A
:1041A00070B504000D00FFF78BFF201D02222900CF
:1041B00023F0EEFB002804D103481DF02DFF03F08F
:1041C0006FF9024870BDC04688A3020024DD0200DA
:1041D00010B50400FFF774FF201D23F046FC0028F3
:1041E00003D1024902481DF02DFE10BD260C03002C
:1041F00088A30200F8B50D0001280BD0002803D0D9
:1042000002280BD00020F8BD8B681448002BFAD18F
:104210001348F8E78B685B001843F4E70324002099
:104220000C408442EFD10F4B0E6820009E42EAD131
:104230004F68A74203D1012076003043E3E7EA68E4
:10424000A3009958002906D0042904D00220FCF7C5
:104250008FFA401036180134EBE7C046B4AD0200C7
:10426000ACAD0200C8A80200F8B5040010200D0093
:104270001DF099FE0600094B210008C6070030001A
:1042800023F07CFBA4002C19A54201D13800F8BD15
:10429000012202CD300023F07BFBF5E704A90200E8
:1042A000F7B504000E00171E2CD0FFF709FF194DBB
:1042B000B4422DD000210800FFF7D6FF00210500F1
:1042C0003000FCF7BDFB01900198FCF71BFC061EBB
:1042D0000CD1002F1CD0E0681DF094FE6B68636069
:1042E000AB68A360EB680B4DE36011E0201D00227A
:1042F000310023F04DFB0028E6D031002800FFF705
:10430000F1FEE1E78842D5D120001DF036FF05001F
:104310002800FEBD24DD0200F0B589B00400039042
:10432000029101920027FFF71BFEB84207D13A0025
:1043300003AB012122481DF092FF04000137029DCA
:1043400000262800FFF70CFEB04207D1320002AB76
:1043500001211B481DF083FF05000136019B002B46
:1043600005D00023AA680193A36893420DD0154B92
:1043700006940493144B05930023079304A81DF09F
:104380004BFF011E12D101230193002F02D0200008
:10439000FFF7F2FE002E02D02800FFF7EDFE019B92
:1043A0000A48002B00D10A4809B0F0BD2B1D00229D
:1043B000180023F0EDFA0028E0D10190E5E7C046AF
:1043C00004A9020084DC020019220200B4AD02003C
:1043D000ACAD020073B50C001500009101920026EF
:1043E0008B0704D10B68394E9E1B73425E4132002D
:1043F0001F2868D816F03CFA2810176767671C67F3
:104400006767676767212D346767673B676767671B
:104410006740464A5358675D290020001DF0BEFEE4
:104420000400200076BD290020001DF00DFFF7E7F5
:10443000694602201DF0EBFEF2E7002E04D069462B
:104440000220FFF76BFEECE7290020001DF09CFE28
:10445000E6E729002000002EE0D0FFF773FEE0E73A
:1044600029002000FFF71CFF002EDAD1D8E76946AB
:1044700002201DF0A0FED3E7012229002000FFF753
:104480004BFFCDE7012221002800F8E72800FFF7C5
:1044900067FD002815D0A368AA68934211D12900AE
:1044A00020001DF00DFFBBE7290020001DF000FFDC
:1044B000B6E7201D0022290023F06AFA044C0028E8
:1044C000AFD1044CADE70024ABE7C04604A902001D
:1044D000B4AD0200ACAD020010B50400431C02D024
:1044E0000248FEF7FBF8024B1C6010BDAC2E00200A
:1044F000802E0020014B024A9A647047842E0020CF
:10450000AC2E0020F8B50E000500140010F05AF88B
:10451000330003272B433B420BD1BC4209D9A208ED
:104520003100280015F0E6F82300BB43ED18F6181B
:104530003C40002C04D022003100280024F053FC21
:1045400080220449D2008B58002BFCD010F02AF8AE
:10455000F8BDC04600E00140F0B5060000248BB075
:10456000194B1A48E1580BF02DFD03AFE05104340C
:104570001C2CF5D114230024734301930025AB00B8
:10458000F95813481FF0F1FB0135300023F061F8B2
:10459000072DF4D1013DAB000D48F9581FF0E5FBA4
:1045A000300023F056F8013DF5D20134082C03D138
:1045B00009F096FD0BB0F0BD01231C42DED101983D
:1045C00023F047F8DAE7C046A4AA0200289F0200B9
:1045D0002400002010B51920FFF7BEFF004810BDD1
:1045E00024DD0200FF230322DB05CB1810B5934323
:1045F000042804D816F03CF906030F041600002125
:10460000080010BD0021181C16F006FB0A490028FE
:10461000F6D00A49F4E7181C17F054FA01214000BB
:104620000143EDE7802109065B18022193431943FA
:10463000034BC918E4E7C046B4AD0200ACAD0200BC
:1046400000008080FF23DB0510B50400C818032399
:104650009843002386B00193063300931022613300
:1046600002A903F073FB02A920001EF0F0FB2E212B
:1046700002A824F0E8FF00280FD1652102A824F049
:10468000E2FF002809D16E2102A824F0DCFF0028F7
:1046900003D1034920001EF0DAFB06B010BDC0466E
:1046A0003A0B030030B50C001100002285B01D004C
:1046B000009201232000FDF741FE002C23D0286842
:1046C000124B0340062B06D0032420420ED1104B80
:1046D00002689A420AD103A905F058F8002203990A
:1046E0000092130006F08AFE05B030BD030023409F
:1046F000022BF9D008F0CCF903000220A3431843A1
:10470000044BC018F0E70448EEE7C046070080FFFE
:1047100040BB0200000080800200808070B5050070
:1047200086B01000019108F0B3F9041C0390681FD3
:10473000182800D9B8E016F09BF80D121F24333E5C
:104740006A7CB7B7B7B7B70D121F24333E6A9AA376
:10475000A8ADB2000198211C16F096FB03E0211CC5
:10476000019816F0F5FF0190032301984F4A9843F2
:10477000013B03439B1877E0211C019816F0D2FE01
:10478000F1E70021201C16F047FA002803D0484921
:1047900048481DF057FB03A901A81DF0EEFDE3E713
:1047A0000021201C16F038FA0028F0D1211C0198B5
:1047B00016F0E2FCD7E70021201C16F02DFA0028A5
:1047C000E5D1211C019819F041FD0021051C019043
:1047D00016F022FA002807D0039A0023002A01DAF3
:1047E00080231B060193BFE70021281C16F01AFA4C
:1047F0000400039E601E84410021301C16F012FA52
:10480000431E9841A042AFD0311C281CA4E7019D53
:104810000021281C16F000FA002805D00021201CD9
:1048200016F000FA0028B2D1211C281C19F06CFDEA
:1048300099E70021201C16F0EFF90028A7D103A961
:1048400001A81DF09AFD03220220019B1749934302
:1048500003435B180493039B934303435B1804A92E
:1048600005930EF047F90300180006B070BD0199DA
:10487000201C16F0EBF9104B0028F5D10F4BF3E795
:104880000199201C16F0CEF9F5E70199201C16F0CD
:10489000C3F9F0E70199201C16F0E2F9EBE7019962
:1048A000201C16F0C9F9E6E70023DDE70000808050
:1048B0009D0503000CA70200B4AD0200ACAD0200E0
:1048C000F0B508C98DB00593244B06AC01380093B0
:1048D00001940623FDF762FDE068214E214FB042AE
:1048E00002D00CF045F807001F4B20690393B0423B
:1048F00002D00CF03DF803901C4B60690493B04269
:1049000002D00CF035F80490194D380029000EF053
:1049100037FB290003980EF033FB290004980EF0B2
:104920002FFB01200523049A0399059D52794979AB
:1049300004354042FB5652B2009049B2280015F0AF
:10494000C7FC0023A2686168280015F04DFC280010
:10495000069915F07BFC30000DB0F0BDB4AB020041
:1049600024DD020020CF020030CF020028CF020059
:10497000FCD20200F0B50E6887B0736807000C0027
:10498000002B02D11248FCF77DFC486808F01AF8A9
:10499000010002A822F049FD0025032F03D1A068E1
:1049A00008F010F805000024039B0193A34208D9E6
:1049B000301D290015F074FD049B18550193013436
:1049C000F2E702A9034804F057FA07B0F0BDC04669
:1049D000560C030020B9020070B505006B6886B064
:1049E0000800002B02D10B48FCF74CFC00240122EC
:1049F00003A908F0A1F9039E049B0193A34205D9E2
:104A0000315D281D15F04CFD0134F5E7024806B074
:104A100070BDC046560C030024DD0200F0B5050051
:104A20006B6887B008001400002B02D10D48FCF71A
:104A300029FC0122694608F07FF9200000240222A7
:104A400003A9009F08F078F9039E019BA34206D9B1
:104A5000395D281D15F024FD30550134F5E7024875
:104A600007B0F0BD560C030024DD0200F7B5456821
:104A70001600A8681F00019122F017FB0400A86827
:104A800022F019FB22F011FB0323584307340019CD
:104A900080001DF088FA084B040003606B68320048
:104AA000436000238560C36001993B0008300FF02C
:104AB000C9FF2000FEBDC04650AC020070B5050025
:104AC00088680C0022F0EFFB230002000249280056
:104AD0001EF07BFA70BDC0468A0C030010B5024878
:104AE0001DF09AFA02F0DCFCA4A5020010B5040047
:104AF00008201DF058FA024B4460036010BDC04608
:104B00008CAC0200F7B5C56804001E00002D02D170
:104B10001D602800FEBD03691830834205D1184B83
:104B2000994203D01748FCF771FD19602000164F19
:104B300011007B680830019363687B6008F008F916
:104B4000019B05007B60012807D002280CD00023C0
:104B5000E36023691B683360DBE723691B6833600C
:104B6000002BD6D1E360D4E7A368986822F09DFAC1
:104B7000002305308000E36024186368EBE7C0463B
:104B800024DD0200A80C0300842E002013B501AB25
:104B9000FFF7B8FF01280ED0104C02280DD0019B62
:104BA000A34219D0002B17D001AA01210C481DF0F7
:104BB0002DFA02F075FC019816BD019807F01EFE53
:104BC000074904F01DF8002801D10198F1E7019888
:104BD000FDF7F2FCA042F8D10020EDE724DD020051
:104BE000A4A5020010B50B00022808D14A680549A7
:104BF0001868FFF7CBFF002803D1FFF76FFF8A6823
:104C0000F5E710BD24DD020010B500220149FFF7D1
:104C1000BDFF10BD24DD020013B5114C01AB114ADC
:104C20002100FFF76FFF012803D0022805D02000E4
:104C300016BD0D490D481DF005F9019807F0DEFD80
:104C40000B4903F0DDFF0028F1D1019807F0D6FDF4
:104C5000084903F0D5FF0028E9D1019802F020FCB3
:104C600024DD020010A102006A0C030068A5020006
:104C700098A20200A4A50200F7B505002C200E00A2
:104C8000170001931DF0A1F904000570866087816B
:104C9000072D01D0012D10D1337872780A3B1B0209
:104CA00013439BB2E381019B20206375042363843B
:104CB0001DF079F9A0622000FEBD014B5B5DF1E7BC
:104CC000DE0C0300F7B50600194D0C0028001CF09F
:104CD000A1FA310017481CF011FA17481CF09AFA93
:104CE00016481CF097FAFF239B00E61821787F29CD
:104CF00001D0A64206D128001CF08CFA10481CF006
:104D000089FAF7BD6278A37850290CD80D48475C22
:104D10000D48405C019300923B0002000B481CF0E0
:104D2000EDF90434E2E70A481CF0E8F9F9E7C04677
:104D3000980D0300C50D0300CD0D0300560D0300B3
:104D4000740D03009311030042110300EE0D0300E4
:104D5000110E0300F0B51D008BB007901B48160024
:104D600008911CF057FA290019481CF0C7F9194896
:104D70001CF050FA18481CF04DFA0024A54204DC3F
:104D800012481CF047FA0BB0F0BD089B375DA0003D
:104D90000799181803788278095D049707689B06BD
:104DA0003F037F0E0397C7789B0E09933B0902933D
:104DB00000883F07C004400E3F0F01901209009782
:104DC000099B06481CF09AF90134D7E7980D0300B7
:104DD000E50C0300120D0300440D0300760D0300E3
:104DE000002803D0012807D0002070478B680448B2
:104DF000002BFAD10348F8E78B685B001843F4E70F
:104E0000B4AD0200ACAD0200034B48600B60002360
:104E100008008B60CB607047D8AC02007FB50400FF
:104E20000122080001A907F087FF00222179402014
:104E300006F06EF801000500029815F02DFD63687C
:104E400006001A0A824218D2A368C1186943E068B2
:104E50001DF0C7F86368E060DBB22A00A0686360F9
:104E60006843E36872431818019924F094FBA3681F
:104E700004489E19A66004B070BD121A1202DBB27B
:104E80001343EAE724DD0200F7B5FF274568040075
:104E90000191BD431DD101792A00402006F038F868
:104EA000636806003B408027A1683F011F4308312B
:104EB00041436760E0681DF094F86368E0601A0A97
:104EC000A368013A013372435E432900801924F03C
:104ED0007EFB2079019BA268E16806F0C1F9A36816
:104EE00003480133A3606368013BFF3B6360FEBD81
:104EF00024DD0200F8B5002207000D00010040206B
:104F000006F006F8060010201DF04DF8084B0400CE
:104F1000012F00D0074B2800277123606368A5602C
:104F2000DBB2704363601DF03EF8E0602000F8BD26
:104F300070AD020034AD020070B506008AB00C00FE
:104F4000150012285BD005D8052827D000242000A2
:104F50000AB070BD1B286AD01F28F7D1012207A90B
:104F600028001EF0E9FE032300284DD01C4213D177
:104F7000394B22689A420FD1012204A920001DF06A
:104F8000E3FA0123079A00930599089B04981EF001
:104F90005AF9324C0028DAD1314CD8E704A9012261
:104FA00020001DF0D1FA07A92800012207F0C4FE55
:104FB000069B002203936B464020197B05F0A8FF57
:104FC00006000100089815F067FC069BA168039392
:104FD0006B4605004118187BFFF78CFF059B04000A
:104FE0001A000499C068039324F0D5FA2A000598A2
:104FF000E36872431818079924F0CDFAA7E7110067
:105000002000FFF70BFFA2E7EA070DD41D4203D1F2
:10501000144B2A689A4207D003232B40022BBBD1A2
:10502000114B1D40062DB7D01048FCF71DFB012287
:1050300004A920001DF088FA012207A928001EF00B
:105040007BFE0028A8D0089B059A00930499079B33
:10505000300020F09CF89CE770AD0200B4AD020077
:10506000ACAD020004C60200070080FFC3120300BB
:10507000F0B5050087B00E00012808D08B0726D1B7
:105080000B68264A934202D0254A93421FD101223F
:1050900003A930001EF050FE002818D0002229007D
:1050A000402005F035FF01000700049815F0F4FBDF
:1050B000060001002800FFF71DFF320004007A43BC
:1050C0000399C06824F067FA200007B0F0BD3000F3
:1050D00007F092FD071E00D0471039002800FFF7A7
:1050E00009FF002104003000FBF7AAFC0026009015
:1050F0000098FBF707FD031EE6D0002F04D119002E
:105100002000FFF7C1FEF3E7721C0192E168320054
:10511000280006F0A5F8019EEAE7C04620B9020083
:1051200070AD020070B50E7904000D00012E0DD196
:1051300019491DF08CFE3300AA68E968200003F0CD
:1051400037FE164920001DF082FE70BD3200144962
:105150001DF03BFFAB68002BF3D0124920001DF07F
:1051600076FE0026AB68B34204D80F4920001DF03C
:105170006EFEE6E7002E03D00C4920001DF067FE0E
:105180003200E968287905F033FF01220100200090
:1051900007F04CFB0136E5E7320E0300BD42030089
:1051A0003E0E0300490E0300BA570300C807030070
:1051B00070B5050086B0141E2CD0032680680E4002
:1051C0002DD1214B0A689A4229D103AA0BF0EAFBA0
:1051D000002802D11D48FCF747FA042C1DD13200EB
:1051E0002979402005F094FE049B06000093039B60
:1051F00028790193019A009B991AFFF77BFE039986
:10520000049A0400521A71437243EE68C068711820
:1052100024F0C1F9200006B070BD3400FAE70A009E
:1052200000230100286807F0A7FC02002879042C5D
:1052300004D1E96805F0DCFE0400EBE72300E9682F
:1052400006F00EF8024CE5E744BC02004D0E0300E8
:1052500024DD020037B50C00110000221D00009271
:1052600001232000FDF76AF8002C05D12100012060
:10527000FFF740FE040016E02968CB0705D48B0732
:1052800013D10C4B0A689A420FD1080007F09AFB21
:10529000010005000120FFF72DFE2A000400002177
:1052A000C06824F094F920003EBD0120FFF7E0FE25
:1052B000E0E7C04604C6020010B50B790349002B95
:1052C00000D103491DF0C3FD10BDC0467E0E030092
:1052D000830E030037B50C00110000221D00009260
:1052E00001232000FDF72AF8002C05D0286807F0DC
:1052F000A7FC034B002800D1024B18003EBDC0465E
:10530000B4AD0200ACAD02000722436804481B792B
:105310001340044AD35C002B00D003487047C046BA
:10532000B4AD0200D9000020ACAD020010B50124DC
:10533000037A05499B005A580448224200D1044888
:10534000A243CA5010BDC046EC010020B4AD02001B
:10535000ACAD0200072330B50279A0211340A22290
:10536000C905D2008A584179164CCA401100E55649
:105370006A1EC90700D56A1C022A0ADC0020824284
:105380001ADB1149CD5C854201D0C8540230E25489
:1053900030BD072A09DD0C2A10DC0B490320CD5C47
:1053A000002DF4D10238C854F1E707490320C95C45
:1053B0000029ECD10800EAE70200E8E703200C220C
:1053C000E5E7C046E1000020D900002070B5037A6F
:1053D000064C05009B00185940081DF04FFB0122A8
:1053E0002B7A9B0019590A401A5170BDEC0100201C
:1053F00070B51948FFF7AEFF022805D117490B68B1
:105400009A1C012313430B601548FFF7A3FF0228E2
:1054100005D112494B689A1C012313434B60114D6F
:1054200028000DF079FD104CA04202D12800FFF7B2
:1054300091FF0E4D28000DF06FFDA04202D1280013
:10544000FFF788FF0A4D28000DF066FDA04202D14B
:105450002800FFF77FFF70BD70CF0200EC01002035
:1054600010CF020000CF0200ECD2020048CF0200B1
:1054700058CF0200072203791340014AD05C7047DD
:10548000D9000020002313B5044A046A09050093DB
:10549000890C8A58A16B1DF025F913BD8CAE020052
:1054A000F0B587B000931B7805000F0002922A2BFD
:1054B00007D183685B5C002B68D0A62B66D007B051
:1054C000F0BD1A00213A022A2CD8846860180378AB
:1054D000032B5BD104A96E681DF0CEF9A319984285
:1054E00005D16F60049928001DF02AF9E7E70378D9
:1054F000032B4BD105A91DF0BFF9009B1B78212B75
:1055000004D1049B059A13430493E7E7222B03D1AC
:10551000049B059A5340F7E7232BDFD1059B049AA0
:105520001340F1E71A00243A022A00D987E0836881
:10553000581801930378032B28D16B6804A90393AF
:105540001DF09AF90600019B039A9B189E42C8D051
:10555000B378B01C7478032B18D105A91DF08CF911
:105560000600372C36D1059A1F2A0FDC4249049BCE
:10557000114199420ADBC021090611418B4205DB2A
:1055800093400493049A53005340DCD500206B6889
:10559000029CDE1B431C0193E4096AD133000134F1
:1055A000DB09FCD1831C1A1939002800039321F070
:1055B000A0FF0500009B029A1B7801991A33037023
:1055C00001301DF011F8039B3200E81821001DF096
:1055D0000BF874E7392C08D1059B1F2B01DD1F2325
:1055E0000593049B059A1341CBE72F2C03D1049B11
:1055F000059A9B18C5E7302C03D1049B059A9B1A8A
:10560000BFE7312C09D10599049805F0EDF9002880
:10561000BCD1059B049A5343B3E7332CB6D005990C
:10562000352C06D10029B1D004981DF0AAFF0490B2
:10563000A8E70029AAD004981DF0B3FFF7E7272BAD
:10564000A4D1836858188378032B9FD14478023003
:105650001DF021F92F2C01D1049042E7302C06D106
:10566000404243000490584000D43AE78EE7C043DC
:10567000F2E701988EE7C046FFFFFF3FF0B597B015
:105680000990C020002560230AAC80000F0016009E
:1056900025706360A5601CF093FC2561E060656186
:1056A000A561E5612762E562A84218D1C149C248F7
:1056B0001CF0BFFC0023060013930D981CF0A2FC05
:1056C000002E00D1D7E10023BA6B39683000FDF716
:1056D00013F8380022F013F9300001F0E1FE38220F
:1056E000002E03D00232022E00D02A000026B34939
:1056F000920052582000B96B330000961CF0F2FF64
:1057000010201CF050FC1021040021F07DFE0AAD99
:10571000AB682A78002B00D18AE1002AC6D1EA685A
:10572000013BAB60DB00D318DA78A44992005258F1
:1057300003921A689D881202120A0692039ADB8865
:10574000527807920F2207990A400592002D21D026
:1057500030220493079B1340102B1DD0202B5BD0CD
:10576000002E00D130E1059B022B00D015E1002373
:10577000012D1AD0079A691ED20705D5039A92887F
:10578000120B012A00D16908012900D08CE0002BFE
:105790000FD089E06368DBE7002D08D13800039B58
:1057A00040309A1C059BAB4205D80126AFE7002E7E
:1057B000F4D10026ABE76E00935B190B09038C460E
:1057C000802149018C4513D106781B051B0D9E4293
:1057D00020D121000AA81CF0C2FF0028E9D13B001B
:1057E00040331B78052B00D039E1754975485FE7D8
:1057F000059A6B1C934206D2049A069900920AA855
:10580000039A1CF06FFF039B0AA89E197188FFF78B
:1058100039FECEE70135C5E7002E0BD0039A6B00A9
:105820009B5A1B0B032B46D10121200021F02CFE9B
:1058300000230370059BAB4241D880200026059AC7
:10584000039B5100C918400199426AD1A368049A88
:10585000981800230593A2686368D31898426BD305
:10586000039B1B78052B01D00C2B00D10126039B39
:10587000597840230B405842434149B25B421E4095
:10588000002900DA01260025049B0795D018089509
:10589000059B9D4257D1002E02D1089B012B62D05F
:1058A0000799200021F054FE039B069A04992000DA
:1058B000FFF7F6FD7DE7012D00D876E78FE7802121
:1058C000039B6E0002339B5B49011A0B12038A4251
:1058D00025D13A0040321278DBB29A421BD1072A16
:1058E00007D1B96CF86C0FF003FF010020001CF029
:1058F000EFFE002D0AD1039B5B787F2B06D90E9B10
:105900002000591C07930E911CF01AFF380010F06C
:1059100097FC01358EE7002D00D146E75FE76B1C51
:105920006AE75A88150B2D03854203D1D2B2062AA5
:1059300000D90126023387E7059B01210133059336
:105940001CF075FE87E7079A037801320792002B57
:1059500004D0089B013308930023079301211CF016
:1059600066FE013594E7A268049B944663441D00DB
:10597000059B9E4200D11CE72B78002B07D1A36822
:105980000122E91A200021F0EAFD0136F0E72800A3
:1059900001211CF04CFE0500F7E7012D00D104E7C2
:1059A00001232A001A4041D0059A032A00D1E1E6DA
:1059B00015E7C046890E03003CA402008CAE02002D
:1059C000B10E030010A302000122059B03992B4096
:1059D00013405A008A188021528849010892120BFC
:1059E00012038A4215D13A0008994032127809050B
:1059F000090D8A420BD1002B04D0380010F020FC96
:105A00000135E1E721000AA81CF0A9FEF8E70135FD
:105A1000A9E6049A069900920AA86B1C039A1CF046
:105A200061FE08990AA8FFF72DFD70E61300A1E6B4
:105A3000002A00D03AE63B0040331E78002E00D00A
:105A4000CDE66368002B00D1C9E62B692000591C04
:105A50001CF076FEA3686B62EB69AB622DE6022B4D
:105A600001D10A49C2E60A3B09480A49012B00D87C
:105A70001EE609491CE6380021F041FF099A13ABE4
:105A800013CB13C2099817B0F0BDC046C30E030074
:105A9000E0A50200F70E03001E0F030010B504007E
:105AA000486800220430074910F082FE064A0028A8
:105AB00003D0406803F054FE0200044920001DF0AA
:105AC00084FA10BD860F0000C3120300360F0300D6
:105AD00070B5150012680C004068002A0AD1CC008D
