:020000040000FA
:1000000000400020616101009D6101009F610100CD
:1000100000000000000000000000000000000000E0
:10002000000000000000000000000000A1610100CD
:100030000000000000000000A3610100A5610100B4
:10004000A7610100E1040100FD620100A761010058
:10005000A761010000000000C1A10100A76101002B
:10006000651F0100A76101000DA40100A761010047
:10007000A7610100A7610100A7610100A76101005C
:10008000A761010031670100A7610100A7610100BC
:10009000A7610100F99F0100D59F0100AD2001007B
:1000A000BD200100A7610100000000000000000069
:1000B0000000000000000000000000000000000040
:1000C00008B5054B054803331B1A062B03D9044B0F
:1000D000002B00D0984708BD2801002028010020EF
:1000E000000000000648074908B5091A8910CB0F1F
:1000F0005918491003D0044B002B00D0984708BD75
:1001000028010020280100200000000010B5074C45
:100110002378002B09D1FFF7D3FF054B002B02D02A
:10012000044800E000BF0123237010BD2801002017
:100130000000000070D6030008B5094B002B03D067
:100140000848094900E000BF08480368002B02D1B5
:10015000FFF7C8FF08BD064B002BF9D09847F7E71B
:100160000000000070D603002C01002028010020B0
:1001700000000000144B002B00D1124B9D46402282
:1001800092029A1A924600218B460F461148124A53
:10019000121A2DF0CFF80D4B002B00D098470C4BC6
:1001A000002B00D098470020002104000D000B48D0
:1001B0002CF099FF23F002F8200029002AF098FD86
:1001C00022F048FD00000800004000200000000070
:1001D0000000000028010020E02F00206D2F020009
:1001E00010B50F482AF0A4FC002817D00D482AF0BB
:1001F00000FD0D4B1B68984203D10C4B9A6E1A639D
:100200000CE03F220A490B8801331340094A128847
:10021000934203D00A88084C0B80A05410BDC046FE
:10022000242900206429002044010020902E002071
:10023000EA2D0020E82D0020FE2D0020002208B528
:10024000084B09481A80094B09491A802AF075FCA5
:100250000122084B524208481A6025F008FF074B5C
:10026000986608BDEA2D002024290020E82D0020F2
:10027000E1010000440100203CEF0200902E00202C
:1002800010B5041C431C03D0034B986E03F0B0FC64
:10029000024B1C6010BDC046902E0020440100207F
:1002A000034B044A1B881088181A431E9841704754
:1002B000E82D0020EA2D0020084B094A19881288F1
:1002C000914201D130BFF7E71A880649885C3F2187
:1002D0001A8801320A401A807047C046E82D002073
:1002E000EA2D0020FE2D002038B5041C4518AC4234
:1002F00005D0217802482AF071FC0134F7E738BDB7
:100300006429002070B5041C4518AC420DD0237838
:10031000064E0A2B03D1301C0D212AF05FFC2178F8
:10032000301C2AF05BFC0134EFE770BD642900202B
:1003300010B5041C002C08D0211E082900D9082162
:100340000248641AFFF7D0FFF4E710BDEC48030041
:1003500038B5051C041C002C08D0211E082900D922
:1003600008210448641AFFF7BFFFF4E7281CFFF7D1
:10037000DFFF38BDF548030008B5011C014826F031
:100380005BF908BD0800002070B5002814D00B4DA3
:10039000041C281C17F06CFA0419061C844205D2B0
:1003A00030BF281C17F064FAB042F9D830BF281CBF
:1003B00017F05EFAA042F9D370BDC046D0280020E5
:1003C00008B50348096808F051FD024808BDC04659
:1003D000ECF502001013030008B540682BF093F809
:1003E000024B002800D1024B181C08BD5C19030009
:1003F000A019030070B5061C11F056FD0E4B0F4AF4
:100400000F4C9A620022DA620E4A5B629A630E49CE
:10041000201C2AF01EFC0D4D281C18F065FF70688A
:1004200017F0C6FD281C18F069FF201C2AF000FCFC
:1004300011F02AFD064870BDD02800208D71010002
:10044000DC280020BB4A020070170000D4290020DD
:100450001013030008B540682BF05DF8004808BD94
:1004600010130300F8B5094E3378002B0CD1084D5A
:100470002C78E4B2002C07D1012700682F700368A4
:100480005B6898472C703770F8BDC0463E2E002040
:100490003F2E002073B501A904F084FD019B061CCA
:1004A000502B02D9184819491CE08020400028F040
:1004B00048F8174C051C231C883318600023019A48
:1004C000934203D0F15CE9540133F9E75B22281C25
:1004D000EA540AF0ADF82B1C002807D188342060BC
:1004E0000C49094825F0D0FD15F05FFC5A1B01337B
:1004F000591E09789B29F9D1291C074825F0F2FEDD
:1005000000238834236076BD84EF02000449030091
:10051000902E00201349030008250300F0B58BB08E
:10052000061C10A80778364805AD00900195081CF8
:10053000111C1A1C05230BF03FF99120000128F033
:1005400000F8304B304A1860059B476043702B79A8
:1005500004A903702B7A041C83702B7BC3702B7C43
:10056000301C136004F01EFD0025284B071C0C20D6
:100570001D6027F0E6FF264B061C036008F0DEF83E
:10058000B06008F0DBF8234B23491860234B706000
:100590001D70234B301C1D70224B0A1C1D602B1C30
:1005A00007F0DAFF201C391C049A2AF09CF9201C61
:1005B00013F04AFE1C4B071E0393134E194D164CA5
:1005C0000AD107F0EDFE0F4B18481F60184B196851
:1005D00025F05AFD15F0E9FB0122164B1A7008F0C0
:1005E000A7F80028FBD1039B883318603368002BE1
:1005F00003D01148296823F0A5FA201C0BB0F0BDE8
:10060000A4DD0200182F0020A827002050010020A0
:100610005CDD02004C01002010130300412E00207D
:10062000422E002054010020902E002084EF020072
:1006300084000020402E00202A49030000220D499A
:1006400010B50B78DBB2934212D10B4A1478002C10
:1006500002D001240C701370084B1B78002B06D0BD
:10066000074A136820331360064B1A6800E082685B
:10067000101C10BD422E0020402E0020412E0020D4
:10068000500100204C010020D2235B005843134A44
:1006900030B51368000C834206D9114C236801332E
:1006A00023601368203B13601F23051C14689D43BF
:1006B000A54203D901240B4B1C70F5E703401A1D1A
:1006C000202A00D92022084C2468934203D2E5183E
:1006D00029710133F9E7054B186030BD5001002046
:1006E00054010020412E00204C0100204801002030
:1006F000074BDB68002B09D05A68904204D3801A5C
:1007000004308000C05802E01B68F3E7181C7047F3
:10071000902E002038B5114D041CEB689868DB68FA
:1007200083420FD30230C00027F00BFFEB68DA687A
:10073000596803609B6852185B0083600023426025
:10074000C360E860E968CB6848685A1C04339B00C2
:100750000138CA6080185C5038BDC046902E002019
:10076000074B4118884205D25A01D318027801304C
:100770005340F7E7D8B2002800D101307047C04697
:1007800005150000034B044ADA6000228C331A601E
:100790007047C046902E00203CDE0200F0B585B0C8
:1007A000071C0E1CFFF7DCFF164B0290DC68002CC8
:1007B00024D0231C10330193E368019D04339B0074
:1007C000E3180393039B9D4216D22868029A03788C
:1007D00093420FD14378B3420CD10230391C321C02
:1007E0002CF07CFD002805D1019BE81A6368851078
:1007F000E81804E00435E5E72468D8E7201C05B0D4
:10080000F0BDC046902E0020F0B585B00290019159
:10081000FFF7C4FF021E5BD12F4C019B271C8C37B6
:100820003868DD1C002819D0261C2C4B90361B681C
:1008300031680393EB188B4210D9691827F0A4FE96
:100840000390002807D1254B3868196827F08FFEE0
:10085000039B3B6002E03368EB183360231C8C334E
:100860001B68002B17D12E1E7F2E00D88026301C2F
:10087000271C27F073FE8C373860002804D1281C11
:1008800027F05FFE2E1C3860231C90331E60231C53
:10089000002294331A60221C943213688C3424682A
:1008A000ED1801990298E4181560FFF759FF6B469F
:1008B0001B79207063700299019AA01C2CF01DFD19
:1008C0000022019B201CE3189A70FFF723FF021CF3
:1008D000101C05B0F0BDC046902E0020242F002033
:1008E000F7B51D1C161C0023071C03600B6033604A
:1008F0002B60174B0091DC68002C24D0154B9C42D8
:1009000021D03B6801333B60E268009B94461B6842
:10091000009A019363441360221CE368103204338D
:100920009B00E3189A4206D23168C81C02CA497873
:1009300041183160F6E7201C09F076FA2B6824682C
:1009400018182860D8E733682A68D3182B60F7BDD9
:10095000902E00203CDE02000C4B70B5DC68002CB1
:1009600013D00B4B9C4210D0261CE36810361D1D83
:10097000AD006519AE4206D204CE064902320648E1
:1009800025F06EFCF6E72468E9E770BD902E0020A4
:100990003CDE02003F490300ECF5020008B50B1CE9
:1009A00002495A6825F05CFC08BDC046BAAA03009B
:1009B000F7B5CC1CA400071C201C0E1C019227F0CC
:1009C000C0FD221C051C054B4760866003600C3A85
:1009D00001990C302CF091FC281CFEBD34EA020079
:1009E0007FB54B680E1C5C106846211C27F08AFC02
:1009F000029D0021281C221C2CF09CFC0121306847
:100A0000014004D1221C2B1C28F05FF908E0042CC3
:100A100000D9042443100021201C2A1C29F082F94B
:100A20006946024803F0D0FD04B070BD00F8020032
:100A3000F0B5002585B0081C0C1C1E1C111C00956F
:100A40002A1C02230AF086FE0120AC423FD08442D9
:100A500028D1306820423AD103230340AB4203D16E
:100A60001C4A0168914232D01B4A0240062A06D035
:100A7000002B0BD103689A69184B9A4206D103A93F
:100A800004F090FA00220399131C18E00323021CBF
:100A90001A40022A16D1FF22D205801898430DF081
:100AA00067F814E003A9306804F07CFA071C70684A
:100AB000039C08F087FA211C021C2B1C381C0AF02E
:100AC00041FF04E008F07EFA01234000184305B01E
:100AD000F0BDC0468CEA0200070080FF855500008B
:100AE000F0B58DB0099214AA1278041C0B9215AAC5
:100AF00012780F1C0892DA0700D494E0181C08F052
:100B000061FA002305900793002803DA4342059316
:100B10002D230793129B0026023B1E2B16D8524B07
:100B2000129A2020995C19F06FFE089BC5B2B3425F
:100B300004D0681C032119F067FE061C13980028D6
:100B400001D02CF05DFD0335AE1936183B689E428E
:100B500004D9301C27F0F5FC20603E6023689F1903
:100B6000069300237D1E2B70059B002B03D1023FB3
:100B700030333B7033E00A950598129919F0BAFFAB
:100B80000F1C0598129919F0CFFE3B1C05903033CD
:100B9000092F02DD0B9B0A3BFB186F1E3B70089B65
:100BA000002B16D0059B002B19D0069B9F4216D90F
:100BB0000A9BDB1B032B01D03D1CDDE76B4620228B
:100BC0009B181B78AF1E3B70069B9F4207D90A9764
:100BD000F2E7069B9F4202D9059B002BECD1139BA9
:100BE000002B0ED0181C2CF00BFD069B381A9842D7
:100BF00007D90023139AD25C002A2ED0C2540133A5
:100C0000F8E7079B002B06D0069B9F4203D96B4653
:100C10001B7F013F3B702368381C9E19F61B099B04
:100C2000013E1E601EE09A0710D1104A19689142D9
:100C30000CD1129A391C0092139A01920B9A0292CB
:100C4000089A0392099A28F017F80BE0002322680B
:100C50001370099A2068136004E0079B071C002B9F
:100C6000D5D1D8E70DB0F0BD5B6403008CEA02007B
:100C700010B50C1C1449031C8A4202D1211C01220C
:100C80001EE012498A4202D1211C032218E00020F2
:100C9000072B17D10E4B1340062B0ED0930711D103
:100CA00013680C498B4208D00B498B4205D00B4985
:100CB0008B4202D00A498B4204D1111C0720221C0E
:100CC00013F0EAFF10BDC046A01903005C19030031
:100CD000070080FF0825030000F80200C434030069
:100CE0001414030008B50B1C4179021C012904D11E
:100CF000C06A191C28F066FF04E0006B0249D26A42
:100D000028F09CFF08BDC046D00E030008B50B1CA0
:100D10004179021C012904D1C06A191C28F072FF14
:100D200004E0006B0249D26A28F088FF08BDC04683
:100D3000C00E030008B50B1C4179021C012904D127
:100D4000C06A191C28F05EFF04E0006B0249D26AF9
:100D500028F074FF08BDC046E00E030008B53F222E
:100D6000014B24F079F808BD6958020008B59122BA
:100D7000014B24F071F808BD191F0000F7B5041CE1
:100D8000C579868A0F1CC18A00200191E071A0827A
:100D9000E082111C201C1A1C0F4B24F05DF8A36884
:100DA000002B18D1E18A002908D0A38A002B05D195
:100DB000206B27F01AF9206B26F0A9FFA38AE28A9C
:100DC000201C391C23F0F8FF6B1E9D416B469B884D
:100DD000E571A682E382F7BD1D1B000038B583686C
:100DE000002B0BD1041C0D1C0548111C25F04CF9DF
:100DF000A060201C291C0C3024F093F838BDC0469C
:100E0000ECF40200F0B58DB06B4601921B79041C26
:100E100043710123E16203610B780D1C012B02D0A9
:100E200000219B4A46E0019B012B07D9836B019966
:100E30001E68231C406B2A1C0833B047AB68181C83
:100E4000049328F03BFD63790490032B0FD10990A4
:100E50000C2109A828F04BFDA36B021C9B68606B5A
:100E600009999847A3686883002B00D009E104988A
:100E700028F024FD04900378011C002B23D00A3BAA
:100E80000F2B1CD809A923F06BFF099B772B14D0DB
:100E900004D803220292312B17D008E0812B04D012
:100EA00002220292992B10D001E001230CE0201CB9
:100EB0000499784AFFF792FFE8E0002304E0201C41
:100EC000754AFFF78BFF02230293049828F0F6FC83
:100ED0005A21049004A828F00AFD049D0390039B66
:100EE0009D4200D1C2E004952B78432B00D1B8E09D
:100EF000392B03D0201C0499684ADBE7281C05A97C
:100F000028F0E6FC0378061C912BF3D128F0D6FCE0
:100F1000059B9842EED1301C05A928F0D9FC037836
:100F2000071C0A3B0F2BE5D828F0C8FC059B061EC2
:100F30009E42DFD00378A02BDCD128F0BFFC059BBC
:100F40009842D7D106A9381C23F00AFF301C28F09C
:100F5000BAFC9C21079007A828F0C9FC011C07983F
:100F600028F0A0FC069B061C2E2B1FD1012804D1C3
:100F7000079803780A3B0F2B03D9201C0499484A91
:100F800098E72669731C2361019B012B66D909A987
:100F900023F0E6FEA36B606BDB68311C099A98476F
:100FA00000285BD1201C04993E4A83E72F2B15D1E2
:100FB000012803D107980378032B03D0201C049940
:100FC000394A77E7019B012B48D9A36B676B1E69F0
:100FD00028F054FC011C381CB0473FE0302B27D1CF
:100FE000012803D907980378032B03D0201C049908
:100FF0002E4A5FE7019B012B30D908A928F02FFC6E
:101000000127079007980378032B03D0201C04992D
:10101000274A4FE709A928F022FCA36B07905B69D8
:10102000606B0899099A01379847B742EAD115E0F1
:10103000019B012B12D9032800D95BE7079B181CE1
:10104000099328F03BFC0A9028F038FCA36B0B9026
:101050009F69606B0699321C09ABB847A368002BE7
:101060000FD1281C28F02AFC051C38E76379012BD6
:1010700004D9A36B606B5B6802999847A368002B47
:1010800004D0201C04990C3023F04BFF0DB0F0BDB0
:1010900087640300AB640300B8640300E0640300EA
:1010A000036503001F6503002F6503004B65030004
:1010B0007065030008B5024AFFF790FE08BDC04600
:1010C0009265030030B50B7885B04C1C002B7AD0AC
:1010D0000C1C051C032B09D1081C03A928F0BFFB1D
:1010E0000399041C286B26F0ABFD6CE0012B07D1A3
:1010F00049780234052966D0006B08F06BFA62E08B
:10110000042B07D18978637809021943006B26F014
:10111000DDFD16E0052B19D14379042B02D0006BBD
:101120002A490CE088784B780002184303A923F081
:1011300073FD03992D6B03F095FA011C281C26F012
:10114000D1FD201C28F0BAFB041C3CE01A1C0A3A12
:10115000081C0F2A08D803A923F002FE0399041CD7
:10116000281CFFF7BFFD2EE0082B0BD103A928F0A8
:101170006CFB039B2A6A9B00041C9958286B26F081
:10118000B1FD20E002AA03AB01A928F0C8FB041CB2
:101190000299286B08F0D4F9019B0D4A9B009B58DB
:1011A000281C211C002B03D10A4AFFF717FE09E077
:1011B000039A9847AB68002B04D0EB68002B01D151
:1011C000029BEB60039C201C05B030BD1013030094
:1011D000ECEA0200AF650300F0B587B005930B1C85
:1011E000141C5A1E93410091DBB2061C0599201C69
:1011F0000193002528F056FB019B0290AB4209D0D9
:10120000009B1B78842B05D1291C306B029A26F099
:101210006AFF009D271C029B013B0493019B0393E3
:10122000059B9F421CD03B78842B0ED1002D06D10C
:10123000306B0399049A26F056FF3D1C05E0301CE4
:10124000391C214AFFF7CAFD3BE0381C28F036FB69
:10125000039B071C01330393049B013B0493DFE7CB
:10126000002D07D1019A029B94466344191C306BF0
:1012700026F02DFF019B002B1CD0009BAB4205D11B
:10128000281C28F020FB011C301C01E0301C0099B8
:10129000002200F01BF80DE0AC420FD1201C28F01A
:1012A00012FB011C301C002200F010F8201C28F05A
:1012B00005FB041C059B9C42EED102E0301C211C66
:1012C000F1E707B0F0BDC046C7650300F0B50B7885
:1012D000171C1A1C0A3A85B0041C0D1C0F2A0FD8C3
:1012E000081C03A923F03CFD201C0399002F01D00A
:1012F000022F02D1FFF70AFDE1E0FFF7F3FCDEE089
:10130000192B01D86F4AD8E01A3B7C2B00D183E01F
:1013100004D8252B76D0772B06D0CBE07E2B00D1BE
:1013200088E0912B6ED0C5E0081C02A928F0D0FA05
:10133000061C022F03D0201C311CFFF7C3FE301CFB
:1013400028F0BCFA0299061C23F002FD002800D008
:10135000B0E03378922B14D1301C03A928F0B8FAEE
:10136000061C301C28F0AAFA039A0190904208D279
:10137000022F01D1019EF4E7201C311CFFF7A2FED1
:10138000F8E73378A12B19D1022F04D1206B26F076
:1013900043FD206B0FE0301C28F095FA011C201C47
:1013A000FFF790FE206B012F05D126F009FD206B81
:1013B00026F0D9FC1DE026F0EEFC1AE0A22B79D134
:1013C000301C28F080FA03A923F0CAFC012F07D1B2
:1013D000206B26F0EBFC206B039926F0A2FC08E0C2
:1013E000022F02D1206B26F000FD206B039926F01E
:1013F000C5FC301C28F062FA029923F0A9FC0028F1
:101400005DD157E0002F51D103A9281C28F060FAC4
:10141000391C021C201C3CE0081C03A928F058FAC7
:101420000399061C23F094FC002843D1002F3DD1E2
:10143000351C17E0002F39D1081C03A928F048FA01
:101440000399051C23F084FC031E04D0201C391CC6
:101450003A1C3B1C27E02A789A2A03D0201C291C1E
:101460001A1C20E003A9281C28F032FA061C28F0D8
:1014700025FA03789D2B04D10022201C311C131C5B
:1014800011E09E2B07D103A928F022FA311C021C7F
:10149000201C039B07E0BE2B0CD028F00FFA002184
:1014A000031C321C201CFFF797FE08E0201C291C9F
:1014B000054A02E0201C291C044AFFF78FFC05B0F6
:1014C000F0BDC046E165030014660300F965030042
:1014D000F0B50B7891B00A3B041C019105920F2BDB
:1014E00000D9ECE0081C28F0E9F90378912B00D032
:1014F000E5E0019828F0E2F90DA928F0E9F9037870
:1015000042780A3B1B021343AD2B00D0D7E028F0F2
:10151000D5F90378051CA02B00D0D0E028F013FAF1
:10152000002800D0CBE0281C28F0C8F90D9B984279
:1015300000D0C4E0281C28F0C6F99C210E900EA80B
:1015400028F0D5F90E9B051C0293012302980F93F6
:1015500028F0B4F9061E0E90AE4210D028F0AEF975
:101560000E90A8420ED00378032B00D0A7E00FA95D
:1015700028F075F90E90A84200D0A0E002E07A4B66
:10158000029E0293029B1B784833DBB2022B00D8E9
:1015900095E033784833DBB2022B00D88FE00D9B07
:1015A000181C049328F08AF9059A2769831A5A1E91
:1015B0009341021C5B421A400F9B03920593238BBD
:1015C00027830993638B0A93E38B0B937B1C06930E
:1015D000BB1C07936B461B8B6383A38BE383FB1CB2
:1015E00008933B1D23613578033D6B1E9D41EDB291
:1015F000002D03D0201C311CFFF764FD0299201C34
:10160000FFF760FD206B089926F01BFC0799206B03
:1016100026F0E2FA206B26F0C9FB0022201C01997B
:10162000FFF754FE0499201CFFF74CFD206B069930
:1016300026F0D2FA206B059926F002FB206B1221CE
:1016400026F0B0FC206B089926F0C6FA206B002D1E
:1016500005D026F0B5FB206B26F0C7FB05E026F091
:10166000A5FB201C311CFFF72DFD059B206B1921CC
:10167000002B00DA1A2126F095FC206B0121079A35
:1016800026F0EBFB6B469B8C23836B461B8D6383A1
:101690006B469B8DE383039B002B03D0201C191CFE
:1016A000FFF710FD206B391C26F096FA206B26F010
:1016B00091FB002D56D0206B26F08CFB52E0238B43
:1016C00025690393638B6E1C0493E38B66830693F7
:1016D000AB1C0293A38B0198E383244B2B432383FE
:1016E000EB1C236128F0EAF8011C201CFFF7EAFC40
:1016F000071C206B26F002FC206B311C26F06CFAD4
:10170000206B029926F004FC201C01990022FFF7AF
:10171000DDFD391C201CFFF7D5FC071C206B26F0D3
:1017200052FA002803D1206B311C26F08AFB206B73
:10173000029926F051FA206B26F0F6FB6B469B8946
:1017400023836B461B8A63836B461B8BE383059B5A
:101750009F4203D0201C391CFFF7B4FC206B291CCE
:1017600026F03AFA11B0F0BD029303000080FFFFAB
:10177000F0B5171C85B0041C081C0D1C28F09EF841
:10178000391C061C23F0E4FA019000281CD02379B0
:10179000201C002B11D0E36A1E78002E0DD11321DE
:1017A000FFF7A0FA291C201CFFF78CFC206B0121FD
:1017B000321C331C26F0D6FC02E0291CFFF782FC09
:1017C000206B26F007FB58E033783B2B1BD1291CFC
:1017D000201C0122FFF77AFD301C28F074F84378B2
:1017E000811C4E3BDBB218260A2B01D8244AD65C5A
:1017F000201CFFF767FC206B311C26F0D3FB201C5C
:10180000291C022237E03C2B2ED1301C03A928F0E2
:101810005FF8061C071C039B9F4205D0381C28F06C
:101820004DF80197071CF6E70199201CFFF74AFCC9
:10183000206B26F0BBFA201C291C0022FFF746FD76
:10184000019B9E4219D0301C28F038F8019B051EE0
:101850009D4202D0206B26F0A9FA311C201C0022E8
:10186000FFF734FD2E1CEBE7311C201CFFF72AFC90
:10187000201C291C019AFFF729FD05B0F0BDC046C8
:101880007C640300F0B589B0041C0D1C0591049222
:101890001F1C002924D18379002B27D0C36A029111
:1018A0001B78012B23D10521FFF71CFAE26A108D6A
:1018B000854211DAD16AEB00CB1801215E780E4225
:1018C00008D05A88206B26F0FEF80022206B0221F7
:1018D000131C97E00135EBE7201C00214B4A22E066
:1018E00005A89C2128F003F8029000E00293002351
:1018F0001E1C059D00930393019308E0281C1E43C2
:1019000027F0E1FF0390281C27F0D8FF051C029B5D
:101910009D4254D02B78B82B08D1B73B1E42EDD056
:10192000201C291C3A4AFFF759FA6DE0B92B0CD15B
:10193000B73B1E4203D0201C291C364AF3E7281C63
:101940001E4327F0C0FF0090DDE7BA2B2BD1281CE7
:1019500027F0B9FF051C27F0B1FF0378BE2B09D192
:10196000201C291C062223F019FB281C013727F014
:10197000A5FFC9E72B780A3B0F2B03D9201C291C94
:10198000254AD0E7281C07A923F0EAF9051C079986
:10199000206B26F09BF9291C201CFFF793FB019B71
:1019A000051C0133A8E7019B201C291C002B01D03A
:1019B0001A4AB8E7FFF786FB0137051CA7E7002E98
:1019C00015D0039B002B03D1206B26F0A0F903E078
:1019D000201C0399FFF776FB009B002B03D1206BA3
:1019E00026F095F903E0201C0099FFF76BFB049BA0
:1019F000206B391C019A002B03D0331C26F0BCFB52
:101A000002E0331C26F0AEFB09B0F0BD40660300D7
:101A10005E660300756603008D660300AE66030014
:101A2000F0B589B0041C039103A8072127F05FFFDC
:101A30000027E36A01905E7E0398019B98424AD09A
:101A400005A927F045FF4021039003A827F04FFF89
:101A500006A9051C039823F083F9069B02902A2B04
:101A600019D1A8420DD2029827F028FFA84208D128
:101A7000029807A923F074F9079B2B2B07D02D2B75
:101A800007D0201C0021244AFFF7A8F920E00126F6
:101A90001EE004261CE0201C0399FFF713FB01370E
:101AA00003900398A84208D007A923F059F9079991
:101AB0000390206B26F035F9F3E7281C059923F0F5
:101AC00047F9002804D1A071291C201CFFF7FAFA5D
:101AD000059B0393B0E7181C27F0F5FE019B0390CC
:101AE0001B78011C321C201C242B02D123F0EDF9A1
:101AF00001E023F069FC051C013F06D30022206BA6
:101B00000121131C26F02EFBF6E7201C291CFFF7F1
:101B1000FDF809B0F0BDC046D0660300F7B50A78FD
:101B20000824131C293BA343DBB2002B02D1013351
:101B3000C37168E0131C2A3BA343DBB2002B62D0C5
:101B4000131C0A3B0E1C041C0F2B1DD9081C282A31
:101B500013D101A927F0BCFE071C27F0AFFE019BA3
:101B60000025984212D027F0A9FE019B051CC31A3C
:101B70005A1E93415B421D4008E027F0A4FE071C5B
:101B800027F09CFE051C01E00F1C0025381C01A954
:101B900023F0E6F8E379002D02D02A78002A0AD152
:101BA000002B30D1E38A002B2DD0201C311C164A8B
:101BB000FFF714F927E0002B1ED0A38A01339BB254
:101BC000A382012B0CD1E18A206B002902D026F0E0
:101BD0000CFA01E026F09BF8206B002126F02CFA8D
:101BE000291C201CFFF76EFA206B019926F06EF875
:101BF000206B26F02DFA06E0E38A201C0133E382F5
:101C0000291CFFF75FFAF7BDEE660300F0B5041C70
:101C10000E1C056987B003936B1C0293AB1C036118
:101C2000291C006B171C26F046F9201C23F0A0F895
:101C3000311C201CFFF746FA206B26F07BF9206B45
:101C4000029926F0FEF8206B291C25F0C5FF206BB9
:101C500026F0D7FA2669731C2361039B9F4200D1AB
:101C600091E0381C27F02FFE002305932369051C03
:101C70000193013323610378002B0FD127F01EFE5F
:101C800027F01CFE039B984223D0201C291C4B4AA2
:101C9000FFF7A4F8A38B013BA3838CE0071C6A2BFE
:101CA00007D127F010FE071C27F008FE05A923F036
:101CB00057F8206B26F07AF8391C201CFFF702FA3F
:101CC000206B212126F06EF9206B0021019A26F06D
:101CD000C4F8281C27F0F2FD071C206B26F07AF8C8
:101CE0000599002903D1206B26F074F802E0201C2E
:101CF000FFF70CF80025206B26F06CF8059BAB4233
:101D000009D02569206B6B1C2361291C26F0DFF8A4
:101D1000201C23F02DF8391C201CFFF7D3F9059B5C
:101D2000071C002B02D0206B26F004F9206B26F054
:101D300022F9059B002B19D0206B0F2107F04AFCDC
:101D4000206B291C25F048FF206B0F2107F042FC77
:101D5000201C0599FEF7DAFF201C0599FEF7EAFF23
:101D6000A38B206B013BA38326F0BDF8206B311CB5
:101D700026F067F8206B019925F02EFF206B0321D8
:101D800025F026FF69E7A38B206B013BA38326F098
:101D9000AAF8206B26F039FA206B029925F01CFF77
:101DA0000C9B002B03D0201C191CFFF78BF9206B18
:101DB000311C25F011FF07B0F0BDC0461C670300C1
:101DC000F0B587B003914379012B42D1C36A041C5B
:101DD0001B78002B03D1204AFFF700F839E0039B62
:101DE00003A84321019327F082FD02900398029BF0
:101DF00098422ED005A90B2722F0B2FF02AB059D19
:101E0000FF180390291CE06A3A1C27F083FB3B78FB
:101E1000061C002B06D10378042B03D0201C01994B
:101E20000E4A0CE0E06A291C27F0A1FB002803D031
:101E30000378023B022B05D9201C0199084AFEF7C2
:101E4000CDFFD3E704233370E06A291C27F0A1FB00
:101E5000CCE707B0F0BDC0463B67030060670300F6
:101E600081670300F0B585B001914379012B2BD137
:101E70000091041C432101A827F039FD071C01989B
:101E8000B84221D003A90B2522F06AFF039E6D44BE
:101E90000190311CE06A2A1C27F03CFB2B78002BB8
:101EA00008D10378012B05D0201C0099074AFEF7C2
:101EB00095FFE4E701250570E06A311C27F04EFB31
:101EC0000028DCD00570DAE705B0F0BD9F6703009D
:101ED00010B5438B041C002B02D1054AFEF77EFF90
:101EE000A38BE28B618B9A1A206B07F099FB10BDD4
:101EF000BE67030010B5038B041C002B02D1054AFA
:101F0000FEF76CFFA38BE28B218B9A1A206B07F0F4
:101F100087FB10BDD6670300F7B50B78041C1A1CAD
:101F20000A3A0E1C0F2A08D8081C01A922F018FF33
:101F3000201C0199FEF7FEFE76E0912B3FD1081C94
:101F4000694627F0C5FC011C201CFFF7BBF803788D
:101F5000051C922B10D101A927F0BAFC051C281CE6
:101F600027F0ACFC019B071E9F4205D0291C201CBA
:101F7000FFF7A8F83D1CF2E72B78A12B0BD1281C0A
:101F800027F0A1FC011C201CFFF79CF8051C206B0E
:101F900025F04CFF0CE0A22B41D1281C27F093FC2C
:101FA00001A922F0DDFE0199051C206B25F027FF19
:101FB000281C009922F0CCFE002830D034E0962B6B
:101FC0002DD1081C27F0BFFC002828D1301C27F099
:101FD0007AFC061C27F077FC051C201C291CFFF747
:101FE0009BFF281C27F06AFC0378011C9D2B1BD04B
:101FF0009E2B0ED101A927F06BFC019B051E9D4273
:1020000012D0201C291CFFF787FF281C27F056FC44
:10201000F3E7BE2B03D0201CFFF77EFF04E0201C5B
:10202000311C024AFEF7DAFEF7BDC046EB6703003B
:10203000F7B502260D1CC16A041C097E314003D08D
:10204000201C291C334A5EE001912978081C0A38BB
:102050000F2801D8281C05E01A32914212D1281C01
:1020600027F031FC01A922F07BFEE279E36A002A25
:1020700004D15A8B01325A83012635E09A8B013202
:102080009A83F9E71A33994223D1E379002BD7D108
:102090000127281CE77127F056FC0326002823D1CE
:1020A000281C27F010FC0278E36A0A3A0F2A04D8A9
:1020B0001A7E281C17431F7605E01A7E281C17433A
:1020C0001F7627F000FC27F0FEFB01A922F048FE56
:1020D0000AE0281C27F0F7FB01A922F041FEE26A82
:1020E000137E1E43167605260199002911D06B46F2
:1020F000DF1CE06A3A1C27F00DFA3B78002B05D173
:10210000201C291C044AFEF769FE02E002234670E7
:102110000370F7BD036803001268030038B5C36A93
:10212000041C1B780D1C012B04D000210B4AFEF768
:1021300055FE11E0081C111C22F00AFE002804D0F4
:10214000206B0F2107F046FA03E0201C291CFEF744
:10215000B9FF206B26F01BF838BDC0462B68030082
:1021600038B5C36A041C1B780D1C013B012B04D934
:102170000021164AFEF732FE26E0081C111C22F050
:10218000E7FD002804D0206B0F2107F023FA18E0A8
:102190002B78C22B11D1281C27F095FB011C201C89
:1021A000FEF790FF206B25F0A9FE206B0F2107F0B2
:1021B00011FA206B26F015F806E0201C291CFEF70A
:1021C00081FF206B25F0FEFF38BDC0464568030047
:1021D000F0B5041C85B00D1C081C111C22F0B8FDC4
:1021E000002804D0206B002125F026FF80E02B780A
:1021F000AF2B0BD1206B012125F01EFF201C291CC9
:10220000FEF760FF206B25F023FF71E0AE2B67D156
:10221000281C27F058FB051C27F050FB0290037880
:10222000B22B53D103A927F053FB039B0290984292
:1022300003D002A8992127F05AFB2B78AF2B11D19C
:1022400003990298266B27F02DFB411C301C25F0CA
:10225000F3FE291C201CFEF735FF206B25F0F8FE4D
:10226000012304E0201C291CFEF72CFF0023029F01
:102270000193039B9F421ED03E78391CAF3E201C29
:1022800073425E41FEF71EFF019BF6B2071C002B56
:1022900009D0002E03D1201C291C164A08E0206B0F
:1022A00025F0D6FEE5E7002EE3D0201C291C124ABB
:1022B000FEF794FD1CE0019B002B19D1391C0298FC
:1022C000246B27F0EFFA411C201C0FE02B78201C18
:1022D000291C0422AF2B00D0052222F05FFE07E06C
:1022E000291C201CFEF7EEFE0121206B25F0C8FE04
:1022F00005B0F0BD5E68030081680300F0B50123FE
:10230000041C0D1C427187B0E1620361111C006B5B
:102310002A1C07F04DF86379012B02D100236B844E
:10232000AB84AE6833781E2B07D1301C27F0CBFA74
:10233000011C201CFEF7C6FEB9E02B78002B04D14F
:10234000201C311CFEF7BEFEA7E0012B1ED1301C65
:1023500027F0B4FA6379051C012B07D10023201C58
:10236000E371291C0C22564B22F076FD281C27F025
:10237000A5FA27F0A3FA011C201CFEF7A3FE206B90
:1023800025F021FC002800D094E086E0022B18D133
:102390006379012B07D10023201CE371311C142227
:1023A000484B22F059FD301C27F088FA011C201CF4
:1023B000FEF788FE2B7E5B0779D5206B25F00AFDA2
:1023C0006BE0033B032B3AD8301C27F077FA05A9C2
:1023D00027F07EFA27F072FA67790390012F09D16E
:1023E0000B2202ABD218E06A391C27F093F80223C3
:1023F00003706F832B78032B04D1206B002125F011
:1024000001FE0CE0042B04D1206B002125F014FE0A
:1024100005E0052B03D1206B002125F031FE201CA7
:102420000121FEF75FFC0023201C00930399331C5D
:10243000059A23F0C7FA2B78062B38D12DE0637963
:10244000012B06D1281C052105AA27F063F80223D9
:10245000037005A9A86822F083FC201C0D21FEF75B
:1024600041FC201C0C21FEF751FC206B296925F052
:102470002DFC1121201CFEF749FCA86827F01EFA4C
:1024800027F01CFA011C201CFEF71CFE281C05214D
:1024900027F030F80378022B04D1206B0F2107F0CE
:1024A00099F804E042880521206B25F00CFB206B95
:1024B00025F06DFE206B07F009F807B0F0BDC046AF
:1024C000ED550200E1550200F0B51E1C0F1C99B03D
:1024D00009AC00210590151C201C3C222AF02AFF83
:1024E000059B09975B6826712362059B186827F096
:1024F000E5F927F0C3F96062800026F034F8002186
:10250000059BA06200951B68201C0A1C22F03AFC67
:1025100025F043FB00230290206303930026331C25
:10252000626A964202D3002BF8D12CE0A268002AFE
:10253000F9D1A16AB2005558002D16D06A69002A57
:1025400013D128F07CFA6B7E6861291C201C0122C3
:10255000042B02D1FEF756FC01E0FFF7CFFE236902
:10256000039A9A4200D2039301230136D8E70B9ACB
:10257000002A00D0AEE00499139B8900CB58002BB1
:1025800009D1049B01330493129B0693069A049B82
:102590009342ECD39EE0197EC90723D51C8D601EA3
:1025A000C000002C1ED0D96A09184D78AE0711D58D
:1025B000002A17D050880F1C844650681678069061
:1025C000557811CF11C262464A80069A0E704D703E
:1025D0004A6007E0002A02D1012D00D10A1C013C0B
:1025E0000838DEE7002119841A8D944691421CDADE
:1025F000D86ACA0082181878072802D15468052CB6
:1026000011D00138052804D81078002801D10130F4
:1026100010701078022802D05078C00703D5188CAB
:10262000441C1C8450800131DEE7002161450ED03E
:10263000D86ACA0082181078032806D15078C007DB
:1026400003D4188C5080013018840131EEE75E68A5
:10265000002E96D00024328D0792221C07998C42BE
:102660001CDAF16AE000091806910978002503399F
:10267000012911D865450FD0DF6AE90079180F7874
:10268000042F07D106984768381E4F68B84201D119
:102690004A8001320135EDE70134DFE70020824254
:1026A00000D16EE760450DD0DC6AC10061180C787E
:1026B000042C02D14C78E40702D54C8814194C80C4
:1026C0000130EFE7598B92B251185983198C521887
:1026D0001A8456E700260298039925F063FA351C00
:1026E000129B04939E4210D30B9B0393002B4FD05D
:1026F000149B0CA8996822F014FC149B0B98099960
:102700000C9A1B6901F082FA42E00B9B0493002BA8
:10271000EAD1139B0493049AB3009C58002C35D043
:10272000637E042B19D1002D03D1039824F06AFF96
:10273000051C002315932D4B09A8211C0322179378
:102740001695FEF75FFB0B9B0493002B1ED109A887
:10275000211C0422FEF756FB18E0029B09A8211C4D
:1027600002221593FFF7CAFD0B9B0493002B04D1A3
:1027700009A8211C0322FFF7C1FD0B9B0493002B2A
:1027800004D109A8211C0422FFF7B8FD0136A7E7F0
:10279000029825F00FFA002D02D0281C24F043FFE8
:1027A0000024059827F0D9F8139B1B685D69129BDC
:1027B00002939C420AD2139B0293029AA300985858
:1027C000002801D026F08DFE0134F0E7139825F0A3
:1027D000DFFE0B9A002A02D0101C13F0E6FA281C28
:1027E000111C28F037F919B0F0BDC04674FC020086
:1027F00030B585B003AB051C141C081C02AA01A946
:1028000025F070FE019A164900238A4200D0531029
:1028100002984210884200D12A1C002B04DA5B196E
:10282000D843C017034002E0AB4200D92B1C002A5A
:1028300001DA521902E0AA4200D92A1C23609A4206
:1028400000DA1A1C039B62608B4205D0032B03D075
:102850005B10A360002001E00120A06005B030BD46
:1028600010130300F0B587B0061C151C0C9F1B2825
:1028700003D1BA4212D000203FE0192808D01C280A
:102880000CD13D1C171C0A1C1D26191C131C05E02D
:102890003D1C171C0A1C1A26191C131C0397AF4257
:1028A00000D903951C1C002302910193019B039AFC
:1028B00093421BD0029B0594049301CB02CC02935C
:1028C00006F02EFB002802D0019B0133EDE71B2E02
:1028D000D1D0049B301C1968059B1A6812F0DCF9F2
:1028E000074BC01A43425841C0B206E0BD4201D076
:1028F00002D2C0E71A2EBED0012007B0F0BDC046FC
:102900005C190300F0B51E1C85B0039018680D1CFF
:10291000171C06F06DFA7368019002930024022FD1
:1029200018D9291CB268012306F024FC041C032FCB
:1029300010D0291C0198F268012306F01BFC051C2D
:1029400008E0039AA300D058029906F0E9FA00289B
:1029500008D10134AC42F4D30549064823F094FB76
:1029600013F023FA01206400204305B0F0BDC046F7
:10297000A068030084EF0200F0B5051C00248BB0B2
:102980001A4B1B48E15810F0B1F803AB185104344E
:102990001C2CF5D1142300266B4300930024154F03
:1029A00003AB1959381C23F0E9FD0434281CFDF74A
:1029B000EBFC01971C2CF2D109AC02AF2168019805
:1029C00023F0DCFD043C281CFDF7DEFCBC42F5D105
:1029D0000136082E05D0F307E0D40098FDF7D4FCAB
:1029E000DCE703F059FC0BB0F0BDC046A0ED0200DF
:1029F000582703000800002008B51920FFF7BCFF86
:102A0000004808BD10130300F0B5051C8BB0086822
:102A10000C1C02F0B1FA049004A823F0C0FA0027BD
:102A2000049B03900693069B1978002912D0081C7A
:102A30000BF09EFE0126002807D006A823F0C1FA5D
:102A4000069B1B78732B00D0061C069BBF19013315
:102A50000693E8E7381C11F069FD0122009007A9F0
:102A6000606806F06FFC079B089A05939B1801921B
:102A70000293022D0AD9A06806F0A4FA002802DA0F
:102A8000089BC01826D4059B1818059000240DE05B
:102A9000291C01F0E7FD059B009A5D19A31C9B0012
:102AA000059501349850049B01330493BC4230D205
:102AB000049B187800282CD00BF05AFE0125002822
:102AC00003D004A823F07DFA051C0598029A431947
:102AD0009A4205D21049114823F0D6FA13F065F94D
:102AE000049B1B78732BD3D0009BA6009E190195E5
:102AF000019B0436002B0AD0049B0398197805AA81
:102B00000FF082FB019B7060013B0193F0E76419B9
:102B1000C9E700980BB0F0BDB768030084EF02006E
:102B2000F0B589B0039101921E1C02F025FA0490C1
:102B300004A823F034FA00250290B5424ED2049B3B
:102B4000187800284AD00BF013FE0124002803D087
:102B500004A823F036FA041C039B019A1B199A421D
:102B600005D21F491F4823F08FFA13F01EF9049B6A
:102B70001B78732B04D02D190E9BAF00DF191CE0BE
:102B80000E9B6F1CAD00E85805A9012206F0DAFB88
:102B9000069B251E9D4200D91D1C2A1C05990398E1
:102BA0002AF0ABFB039B621B581900212AF0C2FBE1
:102BB000039B3D1C1C1903940CE0002C0AD0049BC1
:102BC00002981978A3005B42FA5803AB0FF084FB1C
:102BD000013CF2E7049B01330493AEE709B0F0BD7A
:102BE000B768030084EF0200F0B50E1C89B00390B3
:102BF00001CE0F1C23F0FBF94410211C04A825F082
:102C000081FB069D221C281C00212AF093FB039BBC
:102C100000962A19013B3868291CFFF781FF04A997
:102C2000024801F0D1FC09B0F0BDC04600F8020036
:102C300030B50C1C89B0051C0222486805A906F0B5
:102C400081FBA06806F0BEF9002809DA069B039311
:102C5000C01805D509490A4823F016FA13F0A5F85B
:102C6000059B069A1918201C0C309A180090EB1E30
:102C70002068FFF755FF034809B030BDB76803006F
:102C800084EF020010130300F0B5836999B05A1E57
:102C900004925A1D920082180432079102920F2169
:102CA000012206339B00C318043303930369019088
:102CB00006A81A4009180A70032293430A930CA825
:102CC00013F058F8031E01D000F08CFD019A5568EE
:102CD000D468079A002A26D02A785E2A23D007983B
:102CE000079300F0BEFCAB786A781B021343B84A26
:102CF000EB189B186360EB780834236023685A064E
:102D000000D1B1E20A9A013B5268920700D49FE2D7
:102D1000221C08C205236360141C0A9B1F680A9BBF
:102D20000C3B0A933D1C019B6F1C5D602B78181CAB
:102D300010385A2801D900F005FD17F051FD5B004D
:102D40005D006200030564000305730081008700D5
:102D5000030589009E00AF00BE00CD00DB00EA0045
:102D6000EF00F700050119012901380155015E0145
:102D70007101890196010305030503050305A301FC
:102D8000A5011A05AC01B201BC01C401D101DE01EB
:102D9000E901030503050305F90126029C029C02D3
:102DA000B902CF02D302E602E602D4FF030503050F
:102DB0000305030503050305030503050305F202E7
:102DC00004031503260334033D03520363037B030B
:102DD0009703A90354048004A70495040305C003C2
:102DE000CC03D703E003F0030B0420043C04DE040F
:102DF000EE04FE04774B00E0774B6360043400F090
:102E0000E5FC764BF9E76B785B06DB177F213A78B8
:102E1000DB01114052B20B430137002AF6DB5B00A5
:102E200001220BE000237F213A78DB01114052B2EE
:102E3000CB180137002AF6DB0622DB001343DCE760
:102E40000323FD1C9D432F1C08CFD6E70023D4E7A6
:102E500000237F213A78DB01114052B2CB180137B1
:102E6000002AF6DB9B005B42029A9858002800D0AB
:102E700049E25B485B4900F05CFD00237F213A7822
:102E8000DB01114052B2CB180137002AF6DB029A5F
:102E90009B005B42985825F086FDE7E700207F22E3
:102EA0003B78C0011A405BB210180137002BF6DBEB
:102EB000251D11F0A3FC00F03EFC00207F223B7892
:102EC000C0011A405BB210180137002BF6DB251D3C
:102ED00011F062FC00F02FFC00217F223B78C90139
:102EE0001A405BB251180137002BF6DB206827F03F
:102EF0007AFD26E200217F223B78C9011A405BB2AD
:102F000051180137002BF6DB2068221C11F0EAFD76
:102F100074E7251D11F08AFC00F00DFC251F2868C0
:102F20002168042206F0DAF900F036FC00237F2144
:102F30003A78DB01114052B2CB180137002AF6DB98
:102F40009B005B4200F012FC00237F213A78DB01FA
:102F5000114052B2CB180137002AF6DB029A9B00CF
:102F60005B4298582168251F25F01FFD00F015FCD5
:102F700000207F223B78C0011A405BB21018013755
:102F8000002BF6DB2168251F11F064FC00F005FC26
:102F900000207F223B78C0011A405BB21018013735
:102FA000002BF6DB2168251F11F06CFCF5E30021F6
:102FB0007F223B78C9011A405BB251180137002BC0
:102FC000F6DB231F20681A6811F0B4FD07E2C04643
:102FD0000380FFFFA0190300101303005C19030016
:102FE00070F10200C8680300231C221F083B106810
:102FF00021681A6806F072F93BE100237F213A78D4
:10300000DB01114052B2CB180137002AF6DB029ADD
:103010009B00D31A1A68002A00D12AE700223EE05A
:1030200000257F223B78ED011A405BB2551901372C
:10303000002BF6DB029BAD005D1B286825F0B3FC7E
:10304000002800D115E72868002125F0AEFCBDE37B
:1030500000207F223B78C0011A405BB21018013774
:10306000002BF6DB11F002FCB0E300207F223B785E
:10307000C0011A405BB210180137002BF6DB11F0CB
:103080000DFCA3E32368B8E62368A360231F1B6835
:10309000636008349AE3231F1968226821601A606C
:1030A00094E3221F136821682360231C083B1868DF
:1030B000106019608AE3AB786A781B021343ED183D
:1030C000D94BEF1882E3AB7820686E78059306F051
:1030D000B9F8EF1C251F2C1C002800D176E321E055
:1030E000AB7820686E78059306F0ACF8EF1C251FCE
:1030F0002C1C002800D069E314E0AB7820686E78BF
:103100000593EF1C06F09EF8002800D131E309E09A
:10311000AB7820686E780593EF1C06F093F80028D2
:1031200000D026E3059B1B021E43C04BF618E8E0C7
:10313000261C27681721381C221C083611F0D2FCE7
:10314000381C1621321C11F0CDFC0020321C011C51
:1031500027F03BFCAB786A781B0213430A9A0F21D5
:103160000C320A920A9AEF1CFB181360022206AB7B
:10317000C9180A9D0B781343221D13436B6000236B
:103180000A9A0B709360A0600DE0261C2568A84B7E
:10319000083E9D4209D16560A56003200021321CD4
:1031A00027F013FC3560341C10E3012129402CD09A
:1031B0006D10231F012D10D1251C1A680C3D05929E
:1031C0009B4A03201A600021226062602A1C27F0BB
:1031D000FCFB059B2B60032315E0251C3268103D8A
:1031E00005921A6803200692914A002132601A6003
:1031F00022602A1C27F0E9FB059B069A2B60231C02
:103200000C3B1A6005233360E9E033683560251C08
:10321000103D23602A1C032027F0D7FB06F012F88C
:1032200000280DD00122824B06A92B600A9B5B6807
:1032300013400E32521813700A9B0C3B0A93ACE2F7
:1032400023682B60231C043C22680C3B1A60AAE70D
:103250000A9A06A8516801220A400F2109180A702B
:103260000A9A0C3A0A924AE5221F1768002B00D1ED
:10327000B5E00C3CAAE2AB786A781B0213430A9AC9
:10328000EF1C0C320A920A9AFB1813602B780A9AE8
:10329000403B584258410F21430006A809180878BE
:1032A00003432343536000230A9A0B7093608DE21B
:1032B000206800F085FC251F002803D012F070FD67
:1032C0002B6817E223685A4A2C1C934200D17DE2F6
:1032D0005B10DBB2012B00D010E592E1206811F009
:1032E0004DFC2EE0AB786E780593019BEF1CDC6003
:1032F000206811F06BFC002805D1059B043C1B02E3
:103300001E43BF1962E2606078E50A9B06A95A680D
:10331000012313400F22521813700A9B0C3B0A938F
:1033200054E200207F223B78C0011A405BB21018A3
:103330000137002BF6DB8300E41A0434211C11F062
:10334000F5F8206042E200207F223B78C0011A405D
:103350005BB210180137002BF6DB8300E41A04344B
:10336000211C25F04DFAECE700237F213A78DB01A0
:10337000114052B2CB180137002AF6DB9B005B42AA
:103380001859216808F030FEF3E100207F223B78D5
:10339000C0011A405BB210180137002BF6DB251D67
:1033A00026F077FBC7E1251C231F083D286821680C
:1033B0001A6826F0A7FBF0E100237F213A78DB01B1
:1033C000114052B2CB180137002AF6DB01339B00C3
:1033D0005B42221F18592168126826F093FB083CB3
:1033E000F4E100207F223B78C0011A405BB2101844
:1033F0000137002BF6DB8300E41A0434211C03F0B0
:10340000E1FC9EE700237F213A78DB01114052B2B4
:10341000CB180137002AF6DB9B005B421859216864
:1034200024F052F8A5E1C0460380FFFF0080FFFFB3
:103430001013030000237F213A78DB01114052B2C0
:10344000CB180137002AF6DB251F022B05D128688F
:103450002168D34A08F05CF89EE1261C083E3068DB
:103460002968226808F054F830609CE600257F2225
:103470003B78ED011A405BB255190137002BF6DBA2
:10348000291C2068221C11F0EBFEC64BED1813E03E
:1034900000257F223B78ED011A405BB255190137B8
:1034A000002BF6DB291C221C206811F031FFFF23C2
:1034B0002A0A1A401D405519AD00641986E10323FC
:1034C0000021FD1C9D4328680A1C27F0C3FA2F1D0C
:1034D000261D606067E60323FD1C9D43261F2868A8
:1034E000316822682F1D27F0B5FABDE70323FD1CC4
:1034F0009D4329796F1D8B00E41A04340AE00323ED
:10350000FD1C9D4329796F1DCB439B00E41880234C
:103510005B0019432868221C27F0B7FA11E7002343
:103520007F203978DB01084049B2C31801370029F0
:10353000F6DBFF20FF22191CDD0940001140284066
:1035400040188000241A1B0A1A402068231D11F01D
:103550001BFAF6E600217F223B78C9011A405BB2D4
:1035600051180137002BF6DBFF23CA095B0013401B
:10357000CAB29B189B00E41A083C00202FE00023ED
:103580007F203A78DB01104052B2C3180137002A7D
:10359000F6DBFF25181CFF22DE09284052003240CE
:1035A000411C891889001B0A641A2B40191C221C13
:1035B00027F00BFAC5E600217F223B78C9011A40AB
:1035C0005BB251180137002BF6DBFF230120CA093B
:1035D0005B001340CAB29B189B00E41A0C3C221CEF
:1035E00011F016FDADE60F2206ABD2181378002BB2
:1035F00007D00A9B596801230B4013700A9B0C3BB0
:103600000A930A9B039A934213D30A9B5B689B0716
:10361000F4D503220A9B21685B6893431C1C596004
:103620009A600A9B08341F680A9B0C3B0A93FFF7B9
:1036300079FB12F0B5FB019B0020DC607DE16B782B
:10364000022B01D1043C0BE0002B09D10A9B039A09
:10365000934200D26BE19868002802D10C3BF6E758
:10366000206811F053FF66E1079E2168231F002E9A
:1036700002D00021079E07911868321C0BAB11F095
:10368000D7FE012811D12F1C0B9B236012F088FB61
:10369000019B06A95F60DC600F235B180A9A1B7808
:1036A00001201343019A136147E1002806D10B9BC7
:1036B000043C002B00D13A4B23600CE002281BD1C4
:1036C0000B98394922F0EAFC002810D00B9800F042
:1036D0000FFA043C2060002E78D0301C334922F0D1
:1036E000DDFC002872D012F05BFB0D967AE012F040
:1036F00057FB0B9B0D9375E0043C00207F223B7829
:10370000C0011A405BB210180137002BF6DB251FF1
:1037100021682A6811F018FF3EE000217F223B78E3
:10372000C9011A405BB251180137002BF6DB251C8A
:1037300001CD11F01BFF60602FE02068251F27F0EE
:103740005DF92AE0AF2B05D80120803B5B000343E5
:10375000FFF753FBBF2B04D8B020C31A9B00FFF721
:1037600083FBCF2B07D8C020C31A9B00029A216885
:103770009950043C2AE0D62B05D8D03B181C216870
:1037800011F098F8DDE5FA2B12D8251FD73B181C4D
:103790002968226811F080FA28602C1C16E0C046C7
:1037A00010130300FFFFFF3F30F2020028F5020074
:1037B0006349644822F068FC041C12F0F1FA049B8F
:1037C000019A06339B00D3185C60AEE05E4B1A6B27
:1037D000002A01D1FFF7A6FA00221C6B1A6312F02F
:1037E000DFFA0D940D9B594918680CF04DF800282C
:1037F00025D0019B5A68002A21D01378432B0BD186
:103800009378D11C52781B021343019ACB18536052
:10381000D3680593043B7EE05E2B10D1019B019A97
:10382000DC680D98231DD36000F062F9019B606095
:103830005B68019A059301335360FFF740FA0D9BD3
:10384000434A93423CD0434A934239D0019B0BA850
:103850001B6805930B9324F0DCFC051C0BA824F0DB
:10386000D8FC041C0BA824F0D4FC019B011C5B6851
:103870000593019B1B680693069A059B981A0122E3
:10388000401B0B9D2B78002B12D0DE0904D11F3674
:103890001E4001355B0908E00F26E0271E40FF00AF
:1038A0001B011F406B7802353B430B95B04204D29D
:1038B0000D98231C00F0AAF902E0801BD218E0E763
:1038C0000F2306AA9B181A78002A08D00A9A516872
:1038D00001220A401A700A9B0C3B0A93F0E70A9AED
:1038E00003998A421AD301221A700A9B0D991B6808
:1038F0000593059A019B05915A6003220A9B5B6818
:1039000093430A9A9160144A5A600D9A9A60126819
:103910000C331A60019AD360FFF7D1F9049B019A26
:1039200006339B00D3180D9A5A60022005E00B481D
:103930000B4922F0A9FB041C51E719B0F0BDC046A9
:10394000F46803001CF40200902E002030F2020004
:1039500040F00200A0F5020010130300C0EF0200C7
:103960000E69030030B5124B8BB003AC20C901388F
:1039700000930194032307F01FFF06A8616824F059
:10398000C1FC039B089A5900237A00936868079B3F
:1039900013F060FB021E05D00649074800F0C8F886
:1039A00012F003FA06A9054800F00EFE0BB030BD78
:1039B00078EE02002D69030034F1020000F80200E5
:1039C00030B5114B89B002AC20C901380093019485
:1039D000032307F0F1FE606805A9012205F0B2FC9F
:1039E000029B059A5900237A00936868069B13F09E
:1039F0007BFB021E05D00549054800F099F812F03E
:103A0000D4F9044809B030BDB0EE0200506903009B
:103A100034F1020010130300F7B51F1C0023061C2D
:103A20000093081C0D1C111C1A1C0B4B07F092FE76
:103A3000102024F093FD041E04D1084A084B094CC1
:103A4000DA6104E0281C391C10F070FDE0600023EE
:103A50002660201CA360FEBDFFFF000000350300B0
:103A6000902E0020A02E002010B5013810C910F0B3
:103A70005DFDE060004810BD10130300F8B57F2322
:103A8000171C151C041C0E1C1F409A430AD17B1ED8
:103A9000012B07D80B68586821F0B9F8011C201CCD
:103AA00022F012FB022F04D1201C0F4922F00CFB44
:103AB00001E0002F12D1F368002B02D05A68002ACF
:103AC00004D1201C094922F0FFFA0CE0012A05D19B
:103AD000201C9968002205F0A5F904E0201CF1687B
:103AE0002A1C10F0B7FCF8BD08910300778E030084
:103AF000C36803485A68002A00D098687047C046D7
:103B000010130300136810B5002B0ED17D2902D1CC
:103B1000C368136009E0054B04689C4205D1BA29CB
:103B200003D1141CFFF7E4FF206010BD30F2020047
:103B30000EB470B5051C87B0102024F00FFD041ED4
:103B400006D11B4B1B4A1D619861DA611A4C29E0B2
:103B5000002105608160012010F0E8FC0B9B051C32
:103B6000E060002B1ED0181C252129F031FD061E17
:103B700008D10B9829F044FD321C011C0B9800F071
:103B800059FD0EE002A8102124F0A5FB0CAA02A802
:103B90000B99019207F04CFA084802A9E56800F079
:103BA00013FDA860201C07B070BC08BC03B0184708
:103BB000902E002000350300A02E002008250300D1
:103BC00008B5031C820708D1064A0168914204D156
:103BD000054AD9680120914203D0181C03490BF013
:103BE00053FE08BDE41A0300193A0000F0F2020087
:103BF00010B5041C05F0FCF8034BC2689A4200D0D3
:103C000024690023A36010BD193A0000F7B5161C03
:103C10000193041C0F1C05F0EBF8174BC2689A4285
:103C200000D02469A568002D09D10C2024F096FC51
:103C3000A06000281ED00323E580A38010E0E38865
:103C4000A18802338B420BDB03318900281C01223F
:103C500024F09AFC00280DD0A388A0600333A38031
:103C6000E288A16893000332E280019ACB181F60BA
:103C70005E609A60F7BDC046193A000070B5151C29
:103C8000041C0E1C05F0B4F8064BC2689A4200D022
:103C90002469A368002B01D1336001E0E28832601F
:103CA0002B6070BD193A0000F0B587B00392059102
:103CB0000D9A0399051C541A0CAA12782021101C85
:103CC000884305D0302A05D00CAA0292012204E0D4
:103CD000224A00E0224A02921022019280221A40D7
:103CE00005D0E30F1B195B10E71A1C1C03E0012130
:103CF0000B4012D11F1C002C12DD261C019B0496C8
:103D00009E4200DD04936B6828680299049A9847E4
:103D1000049BF61A002EF1DC03E0271C141C00E0C3
:103D20000024039B002B06D01A1C28686B68059999
:103D30009847039BE418002F0DDDE419019B3E1EFC
:103D40009E4200DD1E1C28680299321C6B68984751
:103D5000BF1B002FF2DC201C07B0F0BD97690300E9
:103D600086690300F0B593B01F1C18AB10CB05900B
:103D70001B780D1C161C0793CB070BD48B0703D1A4
:103D8000814B0A689A4205D0281C05F01BF90125D1
:103D90004000054381231C4209D1079B302B06D1EB
:103DA0001A9B1B9A934200DA1A9200231B93281C39
:103DB00024F090FF0AAA131C00280DDDA30703D5E9
:103DC0002B231370123B05E0131C620704D520223D
:103DD0001A70192304AA9B18E20618D5022E03D1E3
:103DE00030221A707A1C10E0082E08D130221A7086
:103DF000A20501D401330AE03A1C0E3205E0102E70
:103E000005D130221A703A1C17325A700233002240
:103E10000AA91A705B1A0693A30600D52C320EABC2
:103E20000B9310230C9300231B990D93012901DDA3
:103E300040210C4304A9CB75FBB20096610614D552
:103E400000210293019103922B1C0BA80CA90DAA2F
:103E5000FCF746FE0378061C2D2B15D104AAD3755A
:103E60000D9B0136013B0D930EE00AA901910293CF
:103E700003922B1C0BA80CA90DAAFCF731FE1B9B6F
:103E8000061C012B4BDC02E01B9B012B6ADC00278C
:103E90003D1C630621D5172104ABC9180B78002BF4
:103EA0000AD000230122009301920598FFF7FCFE3F
:103EB0001A9B2D18013B1A93069B002B0DD0002353
:103EC0000122009301920598069A0AA9FFF7ECFED9
:103ED0001A9B069A2D189B1A1A931B9B012B00DD27
:103EE0001A93079B059800931A9B311C01930D9A16
:103EF000231CFFF7D9FE2D18002F09D02023002204
:103F00000093019705982149131CFFF7CDFE2D184A
:103F10000B980EAB984234D024F03AFB31E00D9A66
:103F20001B9B93421CDB1A9A934206DA0127D51A8F
:103F3000274004D02F1C002501E000273D1C012351
:103F40009C43002D09D000221F3300930195059852
:103F50000E49131CFFF7A8FE051C3023079398E7B2
:103F6000131CE0E70D9A1B9B934200DA131C1722E7
:103F700004A952181278511E8A419B18069A9B1860
:103F8000D1E7281C13B0F0BD8CEA0200778E030045
:103F9000F0B5071C00248DB005920D1C2B78002B6A
:103FA00009D18D420BD96E1A3868321C7B6898474C
:103FB000A419291C03E0252BF3D00135EEE70B787B
:103FC000002B00D134E120230026013109930B7826
:103FD000002B12D02D2B01D12C3B02E02B2B02D138
:103FE000293B1E430FE0202B01D11C3BF9E7212B7D
:103FF00001D1193BF5E7302B02D00023069304E0F2
:104000004022099316430131E1E70B781A1C303A3C
:10401000092A07D80A22069801314243D318303BB7
:104020000693F2E708912E2B27D14B782A2B05D047
:104030000B1C01330893002307930CE0089B023309
:104040000893059B1D1D1B680793DB43079ADB172D
:104050001A40079215E0089B1B781A1C303A092A6F
:1040600009D80A2207994A43D318303B0793089B83
:1040700001330893EFE7059D03E00123059D5B42B3
:104080000793089B1B786C3B59425941089B5B186E
:1040900008931B780493002B00D1C9E0642B00D156
:1040A00087E013D8502B00D191E004D8453B022B78
:1040B00000D89CE0B2E0049B622B1AD032D8582B77
:1040C00000D0ABE02B1D0593412383E0049B712BB3
:1040D00034D005D8672B00D889E0702B77D09DE0CD
:1040E000049B752B58D0782B71D0732B00D095E0A2
:1040F00036E02B1D05932B68002B07D0099B381C3D
:104100000093069B4C490193042206E0381C0522CB
:10411000099B4A490093069B0193331CFFF7C4FD9A
:10412000241882E02B1D05932B680BA90B70099BAB
:10413000381C0093069B01220193EEE72B1D0BA96F
:104140002868059320F068FD079B011C013301D10D
:104150000B9B0793099B381C0093069B019311E06E
:104160002B1D2D680593002D0ED0079B013303D125
:10417000281C29F045FA0790381C291C099B00933C
:10418000069B0193079AC8E7099B381C0093069B7E
:104190002B4901930622C0E72B1D05936123009351
:1041A000099B01960293069B381C03932968002201
:1041B0000BE02B1D05936123381C01220093099B02
:1041C00001960293069B039329680A230CE02B1D9A
:1041D000059361230093099B381C0293069B0022E0
:1041E000039310230196296821F07CFF98E70723A9
:1041F00007359D432B1C286869680833059319F01F
:10420000C1FA099B011C0093069B381C0193079B74
:10421000049A0293331C21F0D4FF81E7386808998F
:1042200001227B6898470134059508990131B4E66D
:10423000201C0DB0F0BDC04674690300796903000D
:104240007F690300F0B585B000AF7A601D1C7B6804
:10425000C26BCB18061C0C1CFB60934204D02B498C
:104260002B48FFF765FC3BE0FB68994245D09A007C
:10427000131C69460E33DB08DB00CB1A9D46181C65
:104280000021BB6029F056F80023A200934204D01D
:10429000E858B968C8500433F8E7F9687A688C467A
:1042A00062447A60ED1803E06A6802341A600835E7
:1042B0007B689C4220D2286800F0DEF90021021CB5
:1042C000F36B3B603B68994206D08B00F018006CA2
:1042D000904207D1013107D10D480E49FFF728FC64
:1042E00011F063FD0131EDE7B968CB1819680029B9
:1042F000DAD007480849F1E7BD68F868291C10F0D2
:1043000015F9BD46066005B0F0BDC046A8690300BA
:1043100074F40200E1690300026A030038B50C1C62
:10432000051C0B6805495A6821F09AFF2168281C72
:104330004031221C0FF024FA38BDC046BAAA03004F
:10434000F0B585B00C1C032500F096F92540071C3C
:10435000002D03D11E4B22689A4205D01D491E48EC
:1043600021F092FE11F021FD201C02A903AA24F0E5
:104370005FFA029E039B301C10308000019324F0F2
:10438000E0F8041C291C3C2228F0D4FF134B676082
:104390002360134BE663A360124BE360124B63612F
:1043A000124BA361124BE361124B2362124B636207
:1043B000124B6363B54208D0019BAF00D85900F09F
:1043C0005BF9E71938640135F4E7201C05B0F0BD4E
:1043D00014140300316A030074F40200E41A0300A9
:1043E0001D43000045420000AD440100714501003D
:1043F000014400006946010009450100F4F502008E
:10440000136870B5002B11D10568EE6BB34213D061
:104410009C002C19246C8C4201D00133F6E7591C06
:104420000AD002339B001B58136005E0034904487F
:1044300021F02AFE11F0B9FC70BDC0463F6A0300AE
:10444000A8F20200032210B502400121002A04D183
:104450000A4C03688C46A3420ED00B1C03409C46BA
:1044600008D1002A08D1036805481B1A5A425A414C
:10447000944601E001239C46604610BD6419030088
:104480008CEA020010B5041CFFF7DCFF01230028B2
:1044900009D10322031C2240022A04D1034B2340EA
:1044A000063B581E83410120184010BD070080FFC5
:1044B00008B523F016FA0349021C0348FFF738FB3E
:1044C00011F073FC536A030074F4020010B5041C6D
:1044D000102024F036F8044B84600360034B4360E3
:1044E0000023C36010BDC046CC2403005565020004
:1044F000F7B50E1C0193041C8B180A1C00210093B5
:10450000009B9A420ED21378272B04D0223B5842AC
:104510004341DBB201E0002301210132002BEFD047
:10452000272503E02725002900D0053D1F4F201C2B
:10453000391C2A1C21F094FE009B9E422FD2327817
:10454000AA4203D1201C1A492A1C24E05C2A02D169
:10455000201C18491AE01F2A0AD97F2A19D0019B6A
:10456000002B02D053B2002B0CDB201C391C12E0B4
:104570000A2A02D1201C104908E00D2A02D1201C71
:104580000E4903E0092A04D1201C0D4921F09CFDAD
:1045900003E0201C0B4921F063FE0136CCE7391CF7
:1045A0002A1C201C21F05CFEF7BDC046806A030077
:1045B0007F6A0300836A0300866A0300896A030036
:1045C0008C6A03008F6A0300194B70B5061C0D1C22
:1045D00098420ED188684968FCF7E0F8041E08D0BC
:1045E000281C23F0A2FE00230620E4002B602043B9
:1045F0001DE0102023F0A5FF6968041C816006609F
:10460000A868FCF7ADF86B686060591C2B6899428C
:1046100002D1AB68E36003E0A86823F0A8FFE06084
:104620000023201CE268A1685354AB602B6070BD6E
:104630000825030038B5051C0C1C002A02D0FCF725
:10464000E3F803E0FCF7AAF8002803D00623C00033
:10465000184304E00248291C221C21F043FE38BD07
:104660000825030008B5031C0A1C0248191C21F088
:1046700039FE08BD00F8020008B50B4B0340062BBD
:1046800001D1C0080EE0031C820708D1074A016867
:10469000914204D19968C068FCF7B6F802E0181C92
:1046A000FFF706FF08BDC046070080FF082503008E
:1046B00008B5064B0340062B03D1C00820F0ACFA26
:1046C00002E08368C0680B6008BDC046070080FF39
:1046D000F0B5002689B0051C0F1C081C1C1C111C01
:1046E0000096321C032307F035F80E20B74237D06E
:1046F000012F0ED104A802AA102106F039FC02A84D
:104700002168321C04F08EFB281C04A9FFF75CFF13
:1047100026E0206804A983071AD1124B02689A4246
:1047200016D1FFF7C5FF104B061C20680340062B6F
:1047300004D1C00820F061FA041C00E04468102095
:10474000049F23F0FEFE05608760C660446007E0BA
:10475000012204F0F7FD049805990022FFF76AFF93
:1047600009B0F0BD00F80200070080FFF0B58BB083
:10477000049008680D1C0692079304F039FB041C92
:10478000686804F035FB061EA64202D06868FFF791
:104790008FFE08A92868FFF78BFF041C09A9686829
:1047A000FFF786FF089A0590A3180393049B271C24
:1047B000022B19D9AB681F498B4206D00121301C4E
:1047C0000091211C0DF0A4FA071C049B032B0BD0B5
:1047D000EB68184A934207D00122301C0092211C3A
:1047E000089A0DF095FA0390039B381CD91B069B81
:1047F000059A0093099B21F056FD011E0AD1012064
:10480000079B4042002B12D00B490C4821F03CFC86
:1048100011F0CBFA0A4B9E4205D1201C24F00DFB6F
:104820000121400002E0001B4100012008430BB0C1
:10483000F0BDC04610130300966A030084EF020027
:1048400008250300F0B58DB0041C039104F0D0FAE4
:1048500004A9061C201CFFF72BFF01900398830777
:104860000BD10368314A934204D105A906AA26F068
:1048700090F810E02E4A934208D02D480121C368D9
:1048800000220293029C03ABA0470390039805A962
:1048900006AA23F0CDFF0024251C059B9C421ED2B6
:1048A000069BA700D85904F0A3FAB04205D02149CD
:1048B000214821F0E9FB11F078FA002C01D0049B8B
:1048C000ED18069BD8591D4B0340062B03D1C00899
:1048D00020F098F900E080682D180134DDE7291CEC
:1048E000002508A823F00EFD0A9C059B9D4217D2C7
:1048F000002D06D0201C0199049A28F0FEFC049B90
:10490000E418069AAB00985807A9FFF7D1FE079A5A
:10491000011C201C28F0F1FC079B0135E418E4E79A
:10492000301C08A9FFF750FE0DB0F0BDC4340300E1
:1049300014140300AA6A030074F40200070080FF45
:10494000F0B5071C87B008680D1C04F051FA04A9E3
:10495000061C2868FFF7ACFE05A9041C6868FFF771
:10496000A7FE0390201C022F07D90123301C0093BF
:10497000211C049AAB680DF0CBF9059A041B04992D
:10498000A418064B8C4206D8039928F0A7FC044BC8
:10499000002800D0014B181C07B0F0BDA01903007F
:1049A0005C19030073B50D1C061C08686946FFF707
:1049B0007FFE01A9041C6868FFF77AFE011C022E25
:1049C00002D9084810F088FE019A009B06489A42D6
:1049D00007D8981A201828F081FC031E034800D03D
:1049E000014876BDEF6A0300A01903005C190300BB
:1049F000F0B58FB0079010680C1C171C04F0F8F984
:104A00000690012C10D0786804F0F2F9069B9842C9
:104A100002D07868FFF74CFD78680DA9FFF748FED3
:104A20000D9B0890099303E0072309932C4B0893EF
:104A300038680DA9FFF73CFE0D9B0B900493079B74
:104A4000012B05D1049B5D1E01235B420A9302E00A
:104A5000012300250A930024261C049B039405933C
:104A6000059B002B22D00B9B08985A19012309990A
:104A7000009321F018FC002812D1039B002B0ED1CB
:104A8000079B002B03D1049B2E1C5D1E19E0079B86
:104A9000012B15D001232C1C2E1C039300E02C1C91
:104AA0000A9BED18059B013B0593D9E7039B002B5F
:104AB00008D10C4B069A0E209A420FD00A480DE0FE
:104AC000039E2C1C049B0134A21B9A4201D138681E
:104AD00004E00B9B0698991921F004FC0FB0F0BD7F
:104AE000F36E0300082503000CF60200F0B589B050
:104AF000049008680D1C04F07BF9041C686804F03D
:104B000077F9071EA74202D06868FFF7D1FC06A913
:104B10002868FFF7CDFD061C07A96868FFF7C8FDE8
:104B2000069A0590B3180393049B341C022B19D9E1
:104B3000AB681F498B4206D00121381C0091311C03
:104B40000DF0E6F8041C049B032B0BD0EB68184A0D
:104B5000934207D00122381C0092311C069A0DF0B6
:104B6000D7F80390079B0025002B10D1039B201C36
:104B7000191B24F071F901304000012514E0201CBC
:104B8000059928F0ABFB002807D10135341C079AA2
:104B9000039BA6189E42F2D904E0201C24F046F99B
:104BA000061CF3E701206D00284309B0F0BDC046A4
:104BB00010130300F0B58BB00E1C071C039204F019
:104BC00017F9041C301C04F013F9844202D0301C85
:104BD000FFF76EFC05A9381CFFF76AFD06A9051C46
:104BE000301CFFF765FD069B021C002B05D11A49FE
:104BF0001A4821F049FA11F0D8F819498C4201D12C
:104C00000E2100E0174907910891099103990029A5
:104C100001DD079700E009970399281C0091059989
:104C200021F041FB002811D0471B3A1C291C201CF5
:104C300021F058FB069A059BB918DF1B07906918ED
:104C4000BA1A201C089621F04DFB099007A90320F1
:104C50000FF06CFC0BB0F0BD016B030084EF0200A1
:104C6000082503000CF6020008B5011C014821F0DC
:104C700050FC08BD798E020008B5011C014821F0E6
:104C800048FC08BD8D8E0200F7B5061C081C01A962
:104C9000FFF70EFD019B051C002B01D1144826E0F7
:104CA000144B041C9E4201D1002712E0124B9E427D
:104CB000FAD0019A631B934218D22078B04701348E
:104CC0000028F6D1EAE7207809F046FD002805D152
:104CD0000134019A631B9342F5D305E02078B04775
:104CE0000028DBD00127F3E7002FD7D00348FEBD13
:104CF000A0190300C1E70000D9E700005C19030018
:104D000008B5011C0148FFF7BFFF08BD41E70000DF
:104D100008B5011C0148FFF7B7FF08BD59E70000BF
:104D200008B5011C0148FFF7AFFF08BD71E700009F
:104D300008B5011C0148FFF7A7FF08BDC1E7000047
:104D400008B5011C0148FFF79FFF08BDD9E7000027
:104D5000F0B585B0041C0D1C171C04F049F8694619
:104D6000061C201CFFF7A4FC041C042F22D1AB0757
:104D700015D1124B2A689A4211D10098291C01AA18
:104D8000FDF736FD002802D10D4810F0A5FC019B6F
:104D9000029AE118D21A301C21F0A4FA0BE0002389
:104DA000301C00992A1C04F0E5F90123205C400026
:104DB000184300E0002005B0F0BDC046E01003003D
:104DC000116B030070B58AB000296BD018681C1CE9
:104DD000031C364D2B40062B05D083071ED1344BC8
:104DE00002689A421AD10239012955D806A9FFF75B
:104DF0005FFC061C20680540062D04D1C0081FF08A
:104E0000FCFE041C00E044681020069D23F099FB82
:104E1000284B85600360C660446044E001293BD8AC
:104E2000012210420CD04410211C06A823F06AFA7B
:104E3000089B0021181C221C019328F07BFA26E015
:104E400003A922F064FD002805D00399049A1948AB
:104E500021F048FA27E0206804F0D0F9002802D1B8
:104E600006A8102101E0411006A823F034FA2068BA
:104E70000FF084FE041C201C0FF0CEFE002806D08C
:104E800004F0A0F8C1B206A823F0B2FAF3E706A92D
:104E90000848FFF799FB06E00749084821F0F4F8B5
:104EA00010F083FF06480AB070BDC046070080FFBF
:104EB0000825030000F80200426B030074F40200AE
:104EC0000CF6020073B5041C081C01A9161CFFF7A0
:104ED000EFFB051C201C042E05D10849019A2B1C50
:104EE00021F0BEF908E0064921F0EEF8201C291C4B
:104EF000019A0123FFF7FCFA73BDC0465C6B030007
:104F0000B84B0300F7B5021C1A4B051C0C1C1A40C9
:104F10001E1C062A08D10B40401A062B26D0E80892
:104F20001FF06BFE071C00E047682640062E03D1E9
:104F3000E0081FF062FE00E06068002F05D0002846
:104F400003D0874201D0002013E0281C6946FFF7F8
:104F5000AFFB01A9051C201CFFF7AAFB009A019BCF
:104F6000011C9A42EFD1281C28F0B8F94442604154
:104F7000C0B2FEBD070080FF084B07B50340062BFB
:104F800008D0830704D103689A69054B9A4201D07F
:104F9000FFF78EFA01A9FFF78BFB0EBD070080FF1C
:104FA000855500000A4B13B503400C1C062B08D096
:104FB000830704D103689A69064B9A4201D0FFF730
:104FC00077FA01A9FFF774FB019B236016BDC04669
:104FD000070080FF85550000F0B59BB00B900C1CBE
:104FE000079212A810210EAA099305F0C1FF079B92
:104FF0009C4200D3ACE221787D2909D1079B671C34
:105000009F4202D261787D2910D0BE48BE493EE061
:105010007B2904D012A823F0EBF9271C87E2079B19
:10502000671C9F4254D261787B2903D112A823F0D8
:10503000DFF97CE27D2916D0212914D03D1C3A29C4
:1050400011D02B787D2B08D0212B06D03A2B04D001
:10505000079B01359D42F4D140E0079B9D423DD224
:105060003C1C2F1C01E000252C1C3B78212B12D16D
:10507000079A7B1C9A4208D97E78331C723B012B1D
:1050800003D8BB1C934208D328E09E489F4920F0D8
:10509000FBFF10F08AFE3B1C00261A7800273A2AF4
:1050A00000D048E25F1C5B787D2B14D03B1C393A62
:1050B00007998B4212D219787B2901D1013205E080
:1050C0007D2903D1013A002A00D134E20133EFE710
:1050D0000026351C341C079B9F4202D389488C490B
:1050E000D5E7002305933B787D2B02D0854889497D
:1050F000CDE7002C47D000232078169309F038FB29
:10510000211C002822D0099B1B680493002B02DD80
:105110007C488149BBE716AA201C291C21F0ABF86A
:10512000209A169B013A0690934237D2219A013376
:105130009B009B58099A049301235B4213601CE077
:105140000B782E2B04D05B2B02D00131A942F7D370
:105150000691201C091B0122FFF76CFA041C002297
:105160002298211C07F0F8FF002804D1211C6B486D
:1051700020F083FF8DE743680493069BAB4217D270
:10518000674810F0A9FA099B1B68002B02DA5D48FA
:1051900064497CE7209A013A934202D3624863490A
:1051A00075E7013321999A0052580492099A1360C5
:1051B000059B002B03D1002E00D1BAE101E0002EA7
:1051C00012D016A8102110AA05F0D2FE321C733A94
:1051D000531E9A4110A8D2B2049903F023FE5448FA
:1051E00016A9FFF7F1F9049001235B420D93109388
:1051F000059B002B00D1A3E00DF0A4FD209B16A879
:105200000093219B05990193229B3A1C0293099BD1
:10521000FFF7E2FE16A823F0D8F8179B0678C3180C
:105220000A930023041C05939E4216D0414D311C65
:10523000281C28F0CDF9002800D07FE16378059381
:10524000002B09D0281C191C28F0C2F9002800D016
:1052500078E10590061C00E0059E237808932B2B2F
:1052600005D02D2B05D00425202B05D102E00225E9
:1052700000E00025013401E0002508952378232B68
:1052800002D1133B1D4301342378302B07D1059BFA
:10529000002B01D13D330593002E00D13036201C68
:1052A0000A990DAA20F0E7FF037806902C2B04D171
:1052B0000C3B1D43031C01330693069B1B782E2BCE
:1052C00006D106980A99013010AA20F0D4FF069062
:1052D000069B1C78002C07D01748211C28F078F971
:1052E000002800D030E1041C069B1B78002B02D064
:1052F00004481249CBE616A823F017F8059B002BAB
:105300002BD121E084EF0200616B0300896B030065
:10531000A26B0300BA6B0300DE6B030064F50200AE
:10532000416C03005E6C0300E0F00200286C030097
:1053300008250300A86C0300AD6C0300BD6C0300DE
:10534000059D2C1C2E1C08950498FFF79BF83E2306
:105350000593002801D1023B0593002E00D1203691
:10536000089B002B09D0732C02D17E487E498EE623
:10537000632C02D17B487D4989E6059B3D2B05D0F6
:105380005E2B05D03C2B05D13B3B02E0402300E0E7
:1053900080231D430498FFF755F800285FD0632C45
:1053A00023D016D8472C06D8452C58D2002C27D00D
:1053B000252C54D04CE0582C3CD0622C48D10D9B6D
:1053C000009502930023019603930EA804990222EC
:1053D0002EE0672C02D8652C12D340E06F2C19D038
:1053E000782C27D06E2C33D10AE0049803F0EAFD24
:1053F0000D9B16A908700122009601930EA889E062
:105400000D9B009502930023019603930EA8049927
:105410000A220DE0EB0602D580239B001D430D9B65
:1054200008220293002304990095019603930EA885
:1054300061330AE00D9A231C029200220499039220
:10544000173B009501960EA81032FEF78BFC6EE01C
:10545000049822F046FA4649031C424863E0049847
:10546000FFF710F8002838D0002C1FD06E2C1DD06C
:10547000472C15D8452C1AD2252C27D1049803F097
:1054800005FE3C4915F0DEFF80230D9A5B0001927A
:10549000109A011C02922B4300960EA8662212E07D
:1054A000231C653BDBB2022B10D800E06724049874
:1054B00003F0ECFD0D9B221C0193109B011C029339
:1054C0002B1C00960EA820F07CFE30E0049822F001
:1054D00008FA2949031C234825E0059B3D2B02D1EE
:1054E00020482649D3E50498002C01D0732C15D10F
:1054F00016A9FFF757FD109B011C169A002B00DA26
:105500001092109B9A4200D916930D9B169A009602
:1055100001930EA82B1CFEF7C7FB08E022F0E1F96F
:105520001749031C0F48221CFEF702FBB1E57C1C47
:105530005DE5732645E605971F1CD4E50596013405
:1055400000268AE6023488E6069B01330693CBE602
:105550000B9A12AB13CB13C21B6813600B981BB0D2
:10556000F0BDC04684EF0200D66C0300026D03005C
:10557000356D03000000C842666D03009A6D03009C
:10558000CF6D0300F0B5A1B0041C0D1C0D920A28CC
:1055900000D0E6E1073C0692144010D11368B94AE6
:1055A000934206D1069810A90FAA25F0F2F90694A5
:1055B0000BE0B54A934202D10F94109405E00DAB75
:1055C0000F930123109300230693109B281C08932C
:1055D0000F9B11A90A93FFF76BF800230B900C9314
:1055E000AB0705D1A94A2B689B1A5A425A410C9223
:1055F00014AA18A8102105F0BBFC119A00279446A4
:105600000B9B0B9C63440593059B9C4200D39BE141
:105610002178252903D018A822F0EAFE92E1059B03
:10562000661C9E4202D39A489A4916E06178252961
:1056300004D118A822F0DCFE341C83E100252829BF
:1056400019D1A01C061C00E001363378292B08D0A4
:10565000059B9E42F8D38E488F4920F015FD10F02F
:10566000A4FB311A0122FEF7E5FF011C06980CF09D
:10567000BBF9051C01360023341C00260993203396
:105680000793059B9C4211D223782D2B01D12C3BF3
:1056900006E02B2B01D1293B02E0202B02D11C3B41
:1056A0001E430FE0232B0BD0302B05D00023129389
:1056B000059B9C4208D320E040220793164301E05B
:1056C000102309930134DCE723782A2B0FD1089AA1
:1056D0003B1E934202D371487149BEE70A9A9B0070
:1056E000985803F06FFC01371290013405E0201C3C
:1056F000059912AA20F0BFFD041C01235B421393FD
:10570000059B9C428FD223782E2B1ED1059B601CBB
:10571000984288D263782A2B0CD1089A3B1E934278
:10572000D9D20A9A9B00985803F04CFC0137139089
:10573000023406E00023059913AA139320F09BFD81
:10574000041C059B9C4200D36DE7002D07D1089AED
:105750003B1E9342BFD20A9A9B009D580137237883
:10576000672B0FD8652B6AD2582B00D1D1E004D813
:105770001A1C453A022A62D9DBE0632B12D0642B53
:1057800042D0D6E0732B07D8722B00D392E0692B5E
:105790003AD06F2B63D0CCE0752B35D0782B00D16D
:1057A000B7E0C6E03F4B2B40062B05D0AB0714D12A
:1057B0003D4B2A689A4210D11CA9281CFFF7F2FB26
:1057C0001C9A011C012A02D03448384945E720239D
:1057D0000093129B14A801930FE0281CFEF732FEE1
:1057E00000280ED0281C03F0EDFB202301221CA969
:1057F00008700093129B14A80193331CFEF754FA0F
:10580000A0E026482A4928E703222B1C291C134024
:10581000022B0AD1234B2B40062B06D0FF23DB059E
:10582000E818904308F0A4F9011C079B0096019327
:10583000129B14A80293139B0A2203931FE0281CB7
:1058400003F024FC079B22780093129B011C019318
:10585000139B14A80293331C20F0B3FC72E0099B45
:10586000002B02D084239B001E43291C0822079B87
:1058700000960193129B14A80293139B0393612338
:1058800054E0C046C43403008C21030000F8020039
:1058900084EF0200016E0300136E030074F4020033
:1058A000296E0300070080FF08250300506E0300E7
:1058B000696E030016AA1CA8102105F059FB237875
:1058C0000122722B0BD000220C9B934207D0AB0716
:1058D00005D12B68644A9A1A514251418A0016A890
:1058E000291C03F09FFA139A1D9B002A00DA1393D8
:1058F000139A9A4200D91A1C20230093129B14A8D1
:1059000001931E99331CFEF7CFF91CA822F00DFD60
:1059100018E0099A291C1643079A173B0192129A1C
:1059200000960292139A14A803921022FEF71AFA14
:1059300008E00B9A4D49A41A00941A1C4C48FEF733
:10594000F7F88CE601345FE6089B9F4202D0494895
:10595000494982E60C9B4448002B00D1474818A9CE
:105960006EE0081C03F044FA16A9061C281CFEF77A
:105970009FFE071C0D98072C1DD118A903F060FB92
:105980000025A8426DD01899A94205DC3B4B0E3585
:105990009E4266D03A4D64E0169B1CA8594322F003
:1059A000B1FC1E9B381C059300930121169A189B8D
:1059B00020F071FA42E003F01BFA864206D10D98FE
:1059C0001CA9FEF775FE1C9D05900DE0264B0025D9
:1059D0009E4246D10D981CA9012221F098FFA842B1
:1059E0003FD01C9B1D9D05931D2C06D8192C2BD236
:1059F000052C0DD0122C0BD032E01F2C30D10123FE
:105A0000381C00931699059A2B1C20F04CFC22E0C0
:105A1000169B1CA8E91822F075FC1E9B391C181C4B
:105A2000169A069327F069FC169A1E9B94460693D5
:105A30006344181C05992A1C27F05FFC301C1CA924
:105A4000FEF7C2FD051C0CE00095201C391C169ABF
:105A5000059B20F054FA0B4D002802D10A4D00E0BE
:105A60000025281C21B0F0BD00F802007A6E03006A
:105A700084EF020074F40200AF6E030008250300F7
:105A80000CF602005C190300A019030070B58AB07F
:105A9000061C0C1C086804A9151CFEF709FE00234F
:105AA0000593049B011CC218009606A805AB01943F
:105AB0000295FFF791FA06A90248FEF785FD0AB0A4
:105AC00070BDC04608250300F0B5071C87B0086804
:105AD0000D1C03F08DF90190012F07D96C68022F7E
